:020000040802F0
:1000000000000820252F0208E12C0208E92C020834
:10001000F12C0208F92C0208012D02080000000052
:10002000000000000000000000000000092D020890
:10003000172D020800000000252D0208332D0208AC
:10004000752F0208752F0208752F0208752F0208F8
:10005000752F0208752F0208752F0208752F0208E8
:10006000752F0208752F0208752F0208752F0208D8
:10007000752F0208752F0208752F0208752F0208C8
:10008000752F0208752F0208752F0208752F0208B8
:10009000752F0208752F0208752F0208752F0208A8
:1000A000752F0208DDA60208752F0208752F0208B9
:1000B00095A70208752F0208752F0208752F0208F0
:1000C000752F0208752F0208752F0208752F020878
:1000D000752F0208752F0208752F0208752F020868
:1000E000752F0208752F0208752F0208752F020858
:1000F000752F0208752F0208752F0208752F020848
:10010000752F0208752F0208752F0208752F020837
:10011000752F0208752F0208752F0208752F020827
:100120004F2D0208752F02085B2D020855AE0208FC
:10013000672D0208752F0208752F0208752F020817
:10014000752F0208752F0208752F0208752F0208F7
:10015000752F0208A5A90208752F0208396B02083D
:10016000752F0208752F0208752F0208752F0208D7
:10017000752F0208752F0208752F02080000000075
:10018000752F0208752F020821420208752F0208F8
:10019000752F0208752F0208752F0208752F0208A7
:1001A0000000000000000000752F0208752F0208F3
:1001B000752F0208752F0208752F0208752F020887
:1001C000752F0208752F020800000000752F020825
:1001D000752F0208752F0208752F0208752F020867
:1001E000752F0208752F0208752F0208752F020857
:0801F00000000000752F020859
:1002000010B5054C237833B9044B13B10448AFF350
:1002100000800123237010BD104400200000000066
:10022000A462030808B5034B1BB103490348AFF3AD
:10023000008008BD0000000014440020A4620308F0
:1002400010F8012B11F8013B012A28BF9A42F7D080
:10025000D01A7047000000000000000000000000FD
:1002600001F0FF01102A2BDB10F0070F08D010F867
:10027000013B013A8B422DD010F0070F42B3F6D16B
:10028000F0B441EA012141EA014122F007047FF084
:1002900000070023F0E80256083C85EA010586EADB
:1002A000010685FA47F5A3FA87F586FA47F6A5FA17
:1002B00087F68EB9EED1F0BC01F0FF0102F0070223
:1002C00032B110F8013B013A83EA010313B1F8D1CE
:1002D0000020704701387047002D06BF35460338AF
:1002E000073815F0010F07D1013015F4807F02BFE8
:1002F000013015F4C03F0130F0BC0138704700BF39
:10030000034613F8012B002AFBD1181A0138704755
:100310007BB972B90029BEBF00204FF0004106E052
:1003200008BF00281CBF6FF000414FF0FF3000F005
:10033000D3B9ADF1080C6DE904CE002909DB002B1F
:100340001ADB00F04DF8DDF804E0DDE9022304B02B
:100350007047404261EB4101002B1BDB00F040F88D
:10036000DDF804E0DDE9022304B0404261EB410125
:10037000524263EB43037047524263EB430300F086
:100380002FF8DDF804E0DDE9022304B0404261EB20
:1003900041017047524263EB430300F021F8DDF85E
:1003A00004E0DDE9022304B0524263EB43037047EB
:1003B00053B94AB9002908BF00281CBF4FF0FF31CC
:1003C0004FF0FF3000F088B9ADF1080C6DE904CEB4
:1003D00000F006F8DDF804E0DDE9022304B0704720
:1003E0002DE9F047089D8E4604468846002B4AD1E9
:1003F0008A42174662D9B2FA82F64EB1C6F120039C
:1004000001FA06F820FA03F3B74043EA0808B440BB
:100410004FEA174E1FFA87FCB8FBFEF1230C0EFBC8
:10042000118843EA084301FB0CF29A4209D9FB18F0
:1004300001F1FF3080F0EA809A4240F2E780023911
:100440003B449A1AA3B2B2FBFEF00EFB102243EA21
:10045000024300FB0CFC9C4509D9FB1800F1FF325C
:1004600080F0D6809C4540F2D3803B44023840EA7D
:100470000140A3EB0C0300211DB1F3400022C5E9AC
:100480000032BDE8F0878B4205D90DB1C5E9000106
:1004900000210846F5E7B3FA83F1002946D17345F8
:1004A00002D3824200F20581841A6EEB030201201E
:1004B0009046002DE5D0C5E90048E2E7002A00F0AB
:1004C0009080B2FA82F6002E40F0A4808A1A030CC3
:1004D0004FEA174E80B2BCB20121B2FBFEFC0EFB0C
:1004E0001C2243EA024304FB0CF29A4207D9FB1890
:1004F0000CF1FF3802D29A4200F2E080C4469B1A07
:10050000B3FBFEF20EFB123340EA034302FB04F49A
:100510009C4207D9FB1802F1FF3002D29C4200F244
:10052000CA8002461B1B42EA0C40A5E7C1F1200627
:100530008B4022FA06F71F430EFA01F420FA06F365
:100540002EFA06FE4FEA1749234300FA01F81FFA74
:1005500087FCBEFBF9F01C0C09FB10EE44EA0E44CC
:1005600000FB0CFEA64502FA01F209D93C1900F184
:10057000FF3A80F09C80A64540F2998002383C44C6
:10058000A4EB0E041FFA83FEB4FBF9F309FB13443A
:100590004EEA044403FB0CFCA44508D93C1903F1C2
:1005A000FF3E80F08280A4457FD9023B3C4443EA71
:1005B0000040A4EB0C04A0FB02EC64457346E1464A
:1005C00062D35FD05DB1B8EB030264EB090404FAB7
:1005D00006F622FA01F31E43CC40C5E9006400216F
:1005E0004FE7B1FBF2FC010C41EA0E4180B240EA58
:1005F00001423B4638463C46B846BE462026B1FB43
:10060000F7F1A2EB080241EA0C4166E7014618E760
:1006100010462CE7C6F120022EFA02F3B740B14093
:1006200020FA02F24FEA174E0A43B3FBFEF8BCB2BF
:100630000EFB1833110C41EA034108FB04F9B040EA
:1006400089454FEA104380B23ED9791808F1FF3C42
:1006500001D289451FD8A1EB0901B1FBFEF909FBC5
:1006600004F80EFB191192B242EA0142424529D226
:10067000BA1809F1FF31C4D24245C2D2A9F1020130
:100680003A44BEE7F0459DD2BEEB02036CEB070C8B
:100690000138E14696E7A7EB09094944A8F1020CA5
:1006A000B1FBFEF909FB04F8DBE773467FE7504630
:1006B00066E70846FDE63B44023A33E7ACF1020C3C
:1006C0003B441CE749469CE7A1EB0901C446B1FB4A
:1006D000FEF909FB04F8C4E7704700BF80B400AF1F
:1006E000044BDB681B0A03F007031846BD465DF8A0
:1006F000047B704700ED00E080B483B000AF034698
:10070000FB7197F90730002B0BDBFB7903F01F021D
:10071000074997F907305B09012000FA02F241F816
:10072000232000BF0C37BD465DF8047B704700BF37
:1007300000E100E080B483B000AF03463960FB7194
:1007400097F90730002B0ADB3B68DAB20C4997F9BE
:1007500007301201D2B20B4483F800230AE03B6851
:10076000DAB20849FB7903F00F03043B1201D2B25D
:100770000B441A7600BF0C37BD465DF8047B70470A
:1007800000E100E000ED00E080B489B000AFF86067
:10079000B9607A60FB6803F00703FB61FB69C3F192
:1007A0000703042B28BF0423BB61FB690433062B1A
:1007B00002D9FB69033B00E000237B614FF0FF326D
:1007C000BB6902FA03F3DA43BB681A407B699A40BB
:1007D0004FF0FF317B6901FA03F3D9437B680B408B
:1007E000134318462437BD465DF8047B704780B438
:1007F00089B000AFF860B9607A60FB682C331946A5
:10080000BB6803F440734FF44072BA61BA6992FA5C
:10081000A2F27A617A69B2FA82F2D2B2D3409B0034
:100820000B44FB61FB691A68BB6803F01F031F21BF
:1008300001FA03F3DB431A407B6803F01F01BB6836
:1008400003F01F0301FA03F31A43FB691A6000BFA8
:100850002437BD465DF8047B704780B483B000AF99
:10086000786039607B689B6823F480623B681A4338
:100870007B689A6000BF0C37BD465DF8047B70470B
:1008800080B48DB000AFF860B9607A60FB680C335B
:100890001946BB6803F000734FF00072BA61BA6981
:1008A00092FAA2F27A617A69B2FA82F2D2B2D340B3
:1008B0009B000B44FB62FB6A1A68BB6803F0F87389
:1008C0004FF0F8713962396A91FAA1F1F961F96969
:1008D000B1FA81F1C9B2CB40072101FA03F3DB433E
:1008E0001A40BB6803F0F8734FF0F871B962B96A47
:1008F00091FAA1F17962796AB1FA81F1C9B2CB407A
:10090000796801FA03F31A43FB6A1A6000BF3437AF
:10091000BD465DF8047B704780B485B000AFF860D9
:10092000B9607A600D4ABB6813441B781A46FB68AD
:1009300013441B6823F0C0020849BB680B441B78B2
:100940001946FB680B4419467B6813430B6000BFD4
:100950001437BD465DF8047B704700BF2C87030841
:1009600080B485B000AFF860B9607A600D4ABB68AA
:1009700013441B781A46FB6813441B6823F49072D7
:100980000849BB680B441B781946FB680B441946A1
:100990007B6813430B6000BF1437BD465DF8047BD2
:1009A000704700BF2C87030880B485B000AFF860A3
:1009B000B9607A600D4ABB6813441B781A46FB681D
:1009C00013441B6823F400720849BB680B441B786E
:1009D0001946FB680B4419467B6813430B6000BF44
:1009E0001437BD465DF8047B704700BF2C870308B1
:1009F00080B485B000AFF860B9607A600D4ABB681A
:100A000013441B781A46FB6813441B6823F4806266
:100A10000849BB680B441B781946FB680B44194610
:100A20007B6813430B6000BF1437BD465DF8047B41
:100A3000704700BF2C87030880B485B000AFF86012
:100A4000B9607A600D4ABB6813441B781A46FB688C
:100A500013441B6823F4C0520849BB680B441B783D
:100A60001946FB680B4419467B6813430B6000BFB3
:100A70001437BD465DF8047B704700BF2C87030820
:100A800080B485B000AFF860B9607A600D4ABB6889
:100A900013441B781A46FB6813441B6823F4C042B6
:100AA0000849BB680B441B781946FB680B44194680
:100AB0007B6813430B6000BF1437BD465DF8047BB1
:100AC000704700BF2C87030880B485B000AFF86082
:100AD000B9607A600D4ABB6813441B781A46FB68FC
:100AE00013441B6823F440320849BB680B441B784D
:100AF0001946FB680B4419467B6813430B6000BF23
:100B00001437BD465DF8047B704700BF2C8703088F
:100B100080B485B000AFF860B9607A600D4ABB68F8
:100B200013441B781A46FB6813441B6823F0F052E9
:100B30000849BB680B441B781946FB680B441946EF
:100B40007B6813430B6000BF1437BD465DF8047B20
:100B5000704700BF2C87030880B483B000AF786073
:100B600039600C4A3B6813441B781A467B6813446F
:100B70005B6908493A680A44127811467A680A445F
:100B800023F00403536100BF0C37BD465DF8047BBE
:100B9000704700BF2C87030880B483B000AF786033
:100BA0007B681B6843F001027B681A6000BF0C374A
:100BB000BD465DF8047B704780B483B000AF7860B9
:100BC0007B681B6823F400327B681A6000BF0C3717
:100BD000BD465DF8047B704780B483B000AF786099
:100BE0007B681B6823F400227B681A6000BF0C3707
:100BF000BD465DF8047B704780B485B000AFF860F7
:100C0000B9607A60FB68DA68064B1340B9687A68A5
:100C10000A431A43FB68DA6000BF1437BD465DF82B
:100C2000047B704701F8FFFF80B483B000AF7860A9
:100C30007B68DB6823F400427B68DA6000BF0C3716
:100C4000BD465DF8047B704780B483B000AF786028
:100C50007B685B6843F000727B685A6000BF0C37AA
:100C6000BD465DF8047B704780B483B000AF786008
:100C70007B684CF6CC421A6000BF0C37BD465DF86D
:100C8000047B704780B483B000AF78607B6845F226
:100C900055521A6000BF0C37BD465DF8047B7047A3
:100CA00080B483B000AF786039603B6803F007021E
:100CB0007B685A6000BF0C37BD465DF8047B704707
:100CC00080B483B000AF786039603B68C3F30B0237
:100CD0007B689A6000BF0C37BD465DF8047B7047A7
:100CE00080B483B000AF786039603B68C3F30B0217
:100CF0007B681A6100BF0C37BD465DF8047B704706
:100D000080B483B000AF78607B68DB6803F00703D2
:100D1000002B01D1012300E0002318460C37BD460B
:100D20005DF8047B704780B483B000AF78607B6867
:100D30001B6843F040027B681A6000BF0C37BD4659
:100D40005DF8047B704780B483B000AF7860396091
:100D50007B685B6823F010023B681A437B685A602B
:100D600000BF0C37BD465DF8047B704780B483B08C
:100D700000AF78607B685B6843F008027B685A606C
:100D800000BF0C37BD465DF8047B704780B483B06C
:100D900000AF78607B685B6823F008027B685A606C
:100DA00000BF0C37BD465DF8047B704780B483B04C
:100DB00000AF78607B681B6843F080027B681A6034
:100DC00000BF0C37BD465DF8047B704780B483B02C
:100DD00000AF78607B681B6823F080027B681A6034
:100DE00000BF0C37BD465DF8047B704780B485B00A
:100DF00000AF786039603B68012B28D03B68042B3A
:100E000023D03B68102B1ED03B68402B19D03B6889
:100E1000B3F5807F13D03B68B3F5806F0DD03B688E
:100E2000B3F5805F07D03B68B3F5803F01D107235E
:100E30000EE008230CE006230AE0052308E0042363
:100E400006E0032304E0022302E0012300E0002384
:100E5000FB737B6818331946FB7B0B4AD35C0B444E
:100E6000BB60BB681A68FB7B0849CB5C194604234E
:100E70008B40DB431A40BB681A6000BF1437BD4685
:100E80005DF8047B704700BF348703084087030880
:100E900080B485B000AF786039603B68012B28D002
:100EA0003B68042B23D03B68102B1ED03B68402BA3
:100EB00019D03B68B3F5807F13D03B68B3F5806FE2
:100EC0000DD03B68B3F5805F07D03B68B3F5803F3A
:100ED00001D107230EE008230CE006230AE00523D6
:100EE00008E0042306E0032304E0022302E00123D8
:100EF00000E00023FB737B6818331946FB7B0A4A2A
:100F0000D35C0B44BB60BB681A68FB7B0749CB5CB6
:100F1000194608238B401A43BB681A6000BF143778
:100F2000BD465DF8047B704734870308408703089B
:100F300080B483B000AF786039607B689A68064BF4
:100F400013403A681A437B689A6000BF0C37BD466D
:100F50005DF8047B704700BFF8BFFEFF80B483B02C
:100F600000AF786039607B685B6823F070023B6893
:100F70001A437B685A6000BF0C37BD465DF8047B9E
:100F8000704780B483B000AF786039607B685B687D
:100F900023F470023B681A437B685A6000BF0C3729
:100FA000BD465DF8047B704780B483B000AF7860C5
:100FB0007B689B6823F080027B689A6000BF0C37D7
:100FC000BD465DF8047B704780B483B000AF7860A5
:100FD0007B681B6843F001027B681A6000BF0C3716
:100FE000BD465DF8047B704780B483B000AF786085
:100FF00039607B681B6823F4F8123B681B041A43B2
:101000007B681A6000BF0C37BD465DF8047B7047F3
:1010100080B483B000AF786039607B681B6823F0D0
:1010200078723B685B051A437B681A6000BF0C3717
:10103000BD465DF8047B704780B483B000AF786034
:101040007B689B6843F480427B689A6000BF0C37E2
:10105000BD465DF8047B704780B483B000AF786014
:1010600039607B689B6823F400423B681A437B68C5
:101070009A6000BF0C37BD465DF8047B704780B4B2
:1010800083B000AF78607B685B6823F490427B6834
:101090005A607B689B6823F02A027B689A6000BFD5
:1010A0000C37BD465DF8047B704780B483B000AF59
:1010B000786039607B683A689A6100BF0C37BD463A
:1010C0005DF8047B704780B483B000AF786039600E
:1010D0003B681A047B689A6100BF0C37BD465DF817
:1010E000047B704780B485B000AF7860084B1A6B02
:1010F00007497B6813430B63054B1A6B7B681340EE
:10110000FB60FB6800BF1437BD465DF8047B704789
:101110000038024080B485B000AF7860084B1A6C8C
:1011200007497B6813430B64054B1A6C7B681340BB
:10113000FB60FB6800BF1437BD465DF8047B704759
:101140000038024080B485B000AF7860084B5A6C1C
:1011500007497B6813434B64054B5A6C7B6813400B
:10116000FB60FB6800BF1437BD465DF8047B704729
:101170000038024080B500AF00F082FB00BF80BDA8
:1011800080B500AF0FF0F8F900F02CF801F06CFA20
:1011900001F002FA00F0B8FA00F072FB00F026FC51
:1011A00000F0A2FC00F08AF800F01CFD00F030FF17
:1011B00001F008F800F0C8FD01F0A0F800F0D2F945
:1011C00000F09EFE00F0E2FE00F038FB00F07AFA3C
:1011D00001F048F901F0CFFE01F0E1FE01F0FBFE65
:1011E00000BFFDE780B594B000AF07F11C033422C7
:1011F0000021184613F09CF807F1080300221A603A
:101200005A609A60DA601A612A4B1B6C294A43F0D3
:1012100080531364274B1B6C03F080537B607B6807
:10122000254B1B6823F44043234A43F400431360D7
:10123000214B1B6803F440433B603B680923FB617F
:101240004FF480333B6201233B6302237B634FF403
:101250008003BB630F23FB63C0233B6402237B64D7
:101260000223BB640223FB6407F11C0318460FF042
:1012700065FC0346002B01D001F0E8FC0F23BB60A6
:101280000223FB6000233B614FF4A0537B614FF4CA
:101290008053BB6107F10803052118460FF0FCFEDF
:1012A0000346002B01D001F0D1FC00BF5037BD46F2
:1012B00080BD00BF003802400070004080B592B091
:1012C00000AF07F13C0300221A605A609A6007F1F0
:1012D000280300221A605A609A60DA601A6107F1E6
:1012E000180300221A605A609A60DA603B460022B6
:1012F0001A605A609A60DA601A615A614FF480701D
:10130000FFF720FF0420FFF7EDFE0220FFF7EAFEC3
:1013100001233B6003237B6000233B613B4619466E
:10132000844810F042FE02233B6003237B600023CD
:101330003B613B4619467F4810F037FE04233B6073
:1013400003237B6000233B613B461946794810F03C
:101350002CFE08233B6003237B6000233B613B465C
:101360001946744810F021FE10233B6003237B6074
:1013700000233B613B4619466E4810F016FE2023C1
:101380003B6003237B6000233B613B461946694871
:1013900010F00BFE01233B6003237B6000233B61C5
:1013A0003B461946644810F000FE02233B600323CD
:1013B0007B6000233B613B4619465F4810F0F5FD1A
:1013C000002204215D48FFF7A3FB002204215B48B3
:1013D000FFF7A2FA002204215848FFF775FB4FF4EB
:1013E000807204215548FFF7BBFA002204215348BC
:1013F000FFF7DAFA4FF4806204215048FFF7F8FA59
:101400004FF4006204214D48FFF716FB4FF40052E1
:1014100004214A48FFF734FB04214848FFF79CFBAE
:101420000023FB6300233B644FF480737B6407F16C
:101430003C031946424810F03FFC0023BB624FF4C6
:10144000E003FB6200233B6300237B634FF44073A4
:10145000BB6307F128031946394810F059FC0021F5
:101460003748FFF7FAF94FF48033BB610023FB6183
:1014700007F118031946334810F0D6FB0A224FF43F
:1014800000712F48FFF7B3F901220A212C48FFF71A
:10149000F7F92D4A40F205212948FFF7A8F9012262
:1014A00029492748FFF7ECF9284A40F20A21244845
:1014B000FFF79DF9012225492148FFF7E1F9244A68
:1014C00040F20F211E48FFF792F9012220491C48E3
:1014D000FFF7D6F91F4A4FF405711948FFF787F94E
:1014E00001221C491648FFF7CBF91B4A40F219218B
:1014F0001348FFF77CF9012217491148FFF7C0F99B
:10150000164A4FF480710E48FFF771F90122134912
:101510000B48FFF7B5F9124A40F205110848FFF7EA
:1015200066F901220E490648FFF7AAF900BF4837BD
:10153000BD4680BD00080240000402400064024035
:1015400000200140002301400B0030000C0060002F
:101550000D0090000E00C0000F00F0000800800396
:101560000900B00380B58EB000AF07F12C03002254
:101570001A605A609A6007F1180300221A605A60D4
:101580009A60DA601A613B4600221A605A609A60DB
:10159000DA601A615A614FF40070FFF7D3FD012041
:1015A000FFF7A0FD04233B6003237B6000233B6126
:1015B0003B4619463E4810F0F8FC08233B600323E5
:1015C0007B6000233B613B461946394810F0EDFC37
:1015D0004FF0007202213748FFF79AFA00220221E9
:1015E0003448FFF799F9002202213248FFF76CFADC
:1015F0004FF4807202212F48FFF7B2F90022022136
:101600002C48FFF7D1F94FF4806202212948FFF7F7
:10161000EFF94FF4006202212648FFF70DFA4FF46C
:10162000005202212348FFF72BFA02212148FFF73D
:1016300093FA0023FB6200233B634FF480737B63C8
:1016400007F12C0319461C4810F036FB0023BB6140
:101650004FF48013FB6100233B6200237B624FF455
:101660004073BB6207F118031946134810F050FB92
:101670004FF480611048FFF7F0F8104A4FF4007102
:101680000D48FFF7B4F801220C490B48FFF7F8F8B2
:101690000B4A40F205210848FFF7A9F80022084943
:1016A0000548FFF7EDF800BF3837BD4680BD00BFE5
:1016B000000002400064024000210140030090024B
:1016C0000200600280B500AF0D4B0E4A1A600C4B51
:1016D00000221A710A4B00225A71094B00225A61EA
:1016E000074B00229A61064B01221A6204480FF050
:1016F000BBF80346002B01D001F0A8FA00BF80BD63
:101700002C4400200030024080B5B2B000AF07F199
:10171000AC0300221A605A609A60DA601A615A615A
:101720009A6107F1940300221A605A609A60DA60A5
:101730001A615A613B1D90220021184612F0F8FDF3
:101740004FF480437B600023BB663B1D18460FF0BF
:1017500055FE0346002B01D001F078FA0220FFF776
:10176000C1FC4023C7F894300223C7F89830032304
:10177000C7F89C300123C7F8A0300023C7F8A43075
:101780000423C7F8A83007F194031946284810F03D
:101790000CFC8023C7F894300223C7F89830032349
:1017A000C7F89C300123C7F8A0300023C7F8A43045
:1017B0000423C7F8A83007F1940319461C4810F019
:1017C000F4FB4FF40010FFF7A5FC1A48FFF73CFAB2
:1017D000002200211748FFF70FFA1648FFF724FAF6
:1017E0001448FFF7F9F91348FFF7E6F90023C7F8A3
:1017F000AC30114BC7F8B0300023C7F8B430002329
:10180000C7F8B8300023C7F8BC300023C7F8C03091
:101810000023C7F8C43007F1AC031946054810F09F
:10182000DBFC0448FFF7B8F900BFC837BD4680BDF0
:101830000004024000540040FFF1203080B500AFAA
:101840000E48FFF711FA0D48FFF71CFA05210B4867
:10185000FFF726FA4FF47A610848FFF731FA00BF24
:101860000648FFF74DFA0346012BF9D14FF47A6190
:101870000248FFF735FA00BF80BD00BF00300040CE
:1018800080B590B000AF07F1180328220021184658
:1018900012F04EFD3B4600221A605A609A60DA60F0
:1018A0001A615A614FF48050FFF74CFC0120FFF79A
:1018B00019FC10233B6002237B600323BB600023E1
:1018C000FB6000233B6105237B613B46194644488E
:1018D00010F06BFB20233B6002237B600323BB6083
:1018E0000023FB6000233B6105237B613B461946D7
:1018F0003B4810F05AFB40233B6002237B600323EC
:10190000BB600023FB6000233B6105237B613B46FA
:101910001946334810F049FB80233B6002237B606B
:101920000323BB600023FB6000233B6105237B6135
:101930003B4619462A4810F038FB4FF0C06203219D
:101940002848FFF7E5F8402203212648FEF7E4FF88
:101950004FF4003203212348FFF7B6F80022032199
:101960002048FEF7FDFF002203211E48FFF71CF868
:101970004FF4806203211B48FFF73AF8002203214D
:101980001848FFF759F8002203211648FFF778F8A6
:1019900003211448FFF7E0F80023BB610023FB613B
:1019A0004FF4E0633B6202237B620023BB620023AF
:1019B000FB6200237B630023BB630723FB6307F108
:1019C00018031946084810F0DFFF00210648FFF70A
:1019D000BAF90548FFF7DAF900BF4037BD4680BDC8
:1019E00000000240006402400030014080B590B029
:1019F00000AF07F1180328220021184612F098FCC6
:101A00003B4600221A605A609A60DA601A615A6195
:101A10004FF48040FFF77EFB0220FFF763FB4FF49B
:101A200000533B6002237B600323BB600023FB6009
:101A300000233B6105237B613B461946284810F093
:101A4000B4FA4FF480433B6002237B600323BB6006
:101A50000023FB6000233B6105237B613B46194665
:101A60001F4810F0A2FA4FF400433B6002237B6052
:101A70000323BB600023FB6000233B6105237B61E4
:101A80003B461946164810F090FA0023BB614FF40C
:101A90008273FB614FF4E0633B6200237B620123AE
:101AA000BB624FF40073FB6218233B6300237B632C
:101AB0000023BB630723FB6307F11803194609489A
:101AC00010F062FF00210748FFF73DF90548FFF7D6
:101AD0005DF90448FFF727F900BF4037BD4680BDD8
:101AE000000402400038004080B590B000AF07F11C
:101AF000180328220021184612F01AFC3B46002247
:101B00001A605A609A60DA601A615A614FF40040B4
:101B1000FFF700FB0420FFF7E5FA4FF480633B601A
:101B200002237B600323BB600023FB6000233B6137
:101B300006237B613B461946284810F036FA4FF4DD
:101B400000633B6002237B600323BB600023FB60D8
:101B500000233B6106237B613B4619461F4810F07A
:101B600024FA4FF480533B6002237B600323BB6065
:101B70000023FB6000233B6106237B613B46194643
:101B8000164810F012FA0023BB614FF48273FB6118
:101B90004FF4E0633B6200237B620023BB624FF49F
:101BA0000073FB6200233B6300237B630023BB6362
:101BB0000723FB6307F118031946094810F0E4FEF8
:101BC00000210748FFF7BFF80548FFF7CFF80448A2
:101BD000FFF7A9F800BF4037BD4680BD00080240AE
:101BE000003C004080B590B000AF07F118032822F8
:101BF0000021184612F09CFB3B4600221A605A60F6
:101C00009A60DA601A615A614FF40050FFF79AFA4D
:101C10001020FFF767FA4FF480533B6002237B608C
:101C20000323BB600023FB6000233B6105237B6132
:101C30003B461946414810F0B8F94FF400533B6059
:101C400002237B600323BB600023FB6000233B6116
:101C500005237B613B461946384810F0A6F94FF43E
:101C600080433B6002237B600323BB600023FB6057
:101C700000233B6105237B613B4619462F4810F04A
:101C800094F94FF0006200212D48FEF741FF002239
:101C900000212B48FEF740FE4FF440320021284837
:101CA000FEF712FF4FF4807200212548FEF758FE20
:101CB000002200212248FEF777FE4FF480620021C7
:101CC0001F48FEF795FE4FF4006200211C48FEF706
:101CD000B3FE4FF4005200211948FEF7D1FE002157
:101CE0001748FEF739FF0023BB614FF48273FB6195
:101CF0004FF470633B6200237B620023BB624FF4AE
:101D00000073FB6208233B6300237B630023BB63F8
:101D10000723FB6307F1180319460A4810F034FE45
:101D200000210848FFF70FF80648FFF71FF805489D
:101D3000FEF7F9FF00BF4037BD4680BD00100240EE
:101D4000006402400034014080B590B000AF07F15C
:101D5000180328220021184612F0EAFA3B46002216
:101D60001A605A609A60DA601A615A614FF4001082
:101D7000FFF7E8F90220FFF7B5F908233B600223DB
:101D80007B600323BB600023FB6000233B610823CF
:101D90007B613B461946574810F007F910233B601A
:101DA00002237B600323BB600023FB6000233B61B5
:101DB00008237B613B4619464E4810F0F6F8202375
:101DC0003B6002237B600323BB600023FB60002396
:101DD0003B6108237B613B461946464810F0E5F815
:101DE0004FF0007205214448FEF792FE4022052183
:101DF0004148FEF791FD4FF4403205213E48FEF781
:101E000063FE002205213C48FEF7AAFD00220521C1
:101E10003948FEF7C9FD4FF4806205213648FEF7C8
:101E2000E7FD002205213448FEF706FE00220521C9
:101E30003148FEF725FE05212F48FEF78DFE4FF0B5
:101E4000007206212C48FEF763FE002206212A4874
:101E5000FEF762FD4FF4403206212748FEF734FEBC
:101E6000002206212448FEF77BFD0022062122489D
:101E7000FEF79AFD4FF4806206211F48FEF7B8FD79
:101E8000002206211C48FEF7D7FD002206211A4831
:101E9000FEF7F6FD06211848FEF75EFE0023BB6143
:101EA0004FF48273FB614FF4E0633B6200237B627B
:101EB0000023BB624FF40073FB6200233B630023EB
:101EC0007B630023BB630723FB6307F118031946F9
:101ED0000A4810F059FD00210848FEF734FF074872
:101EE000FEF744FF0548FEF71EFF00BF4037BD4622
:101EF00080BD00BF00040240006402400054014065
:101F000080B586B000AF3B1D00221A605A609A600F
:101F1000DA601A610120FFF715F9FEF7DFFB0346CF
:101F2000002200211846FEF72FFC0346194619200F
:101F3000FEF700FC1920FEF7DFFB0023BB80002327
:101F4000BB604FF6FF73FB6000233B6100237B61A6
:101F50003B1D19460C4810F00BFE0B48FEF736FFF0
:101F600000210948FEF7E4FF00210748FEF7F6FFCD
:101F700000210548FFF705F80348FFF715F800BFF3
:101F80001837BD4680BD00BF0000014080B586B057
:101F900000AF3B1D00221A605A609A60DA601A6135
:101FA0000120FFF7B7F8FEF799FB03460022022154
:101FB0001846FEF7E9FB034619461C20FEF7BAFB5C
:101FC0001C20FEF799FB0023BB800023BB604FF071
:101FD000FF33FB6000233B613B1D19464FF08040FF
:101FE00010F0C6FD4FF08040FEF7E0FE00214FF0FC
:101FF0008040FEF79DFF00214FF08040FEF7AEFFCE
:102000004FF08040FEF7D0FF00BF1837BD4680BDBF
:1020100080B594B000AF07F13C0300221A605A600B
:102020009A60DA601A6107F11C0320220021184629
:1020300012F07EF93B1D00221A605A609A60DA6045
:102040001A615A610420FFF765F80A23BB87002351
:102050003B644CF250337B644FF40073BB6407F174
:102060003C031946554810F083FD5448FEF7AEFE78
:1020700000215248FEF75CFF01215048FEF708FF9F
:102080006023FB6100233B6200237B620023BB6271
:102090000023FB6207F11C031A460121474810F098
:1020A00001FE01214548FEF7A1FE10214348FEF73D
:1020B000EFFE07F11C031A461021404810F0F2FD14
:1020C00010213E48FEF792FE4FF480713B48FEF728
:1020D000DFFE07F11C031A464FF48071374810F0F9
:1020E000E1FD4FF480713548FEF780FE4FF48051DA
:1020F0003248FEF7CDFE07F11C031A464FF480511B
:102100002E4810F0CFFD4FF480512C48FEF76EFEA4
:1021100000212A48FEF722FF2848FEF745FF082045
:10212000FEF7E0FF4FF480537B600223BB60002387
:10213000FB6000233B6100237B610223BB613B1DED
:1021400019461F480FF031FF4FF400537B60022304
:10215000BB600023FB6000233B6100237B61022303
:10216000BB613B1D194616480FF01FFF4FF480431B
:102170007B600223BB600023FB6000233B610023E4
:102180007B610223BB613B1D19460D480FF00DFF1B
:102190004FF400437B600223BB600023FB600023FD
:1021A0003B6100237B610223BB613B1D1946044850
:1021B0000FF0FBFE00BF5037BD4680BD0008004059
:1021C000000C024080B5B2B000AF07F1AC030022B2
:1021D0001A605A609A60DA601A615A619A6107F16E
:1021E000940300221A605A609A60DA601A615A6198
:1021F0003B1D90220021184612F09AF84FF48053AC
:102200007B6000233B663B1D18460FF0F7F8034642
:10221000002B01D000F01AFD4FF08040FEF77AFF4E
:102220001020FEF75FFF8023C7F894300223C7F821
:1022300098300323C7F89C300023C7F8A03001234F
:10224000C7F8A4300823C7F8A83007F1940319464B
:1022500028480FF0AAFE4FF48073C7F89430022389
:10226000C7F898300323C7F89C300023C7F8A03084
:102270000023C7F8A4300823C7F8A83007F1940357
:1022800019461C480FF091FEFEF728FA034600227B
:102290000B211846FEF778FA034619465220FEF73E
:1022A00049FA5220FEF728FA4FF4E133C7F8AC3070
:1022B0000023C7F8B0300023C7F8B4300023C7F8B4
:1022C000B8300C23C7F8BC300023C7F8C030002357
:1022D000C7F8C43007F1AC031946074811F002F8FB
:1022E0000548FEF7CCFE0448FEF76EFE00BFC83777
:1022F000BD4680BD001002400078004080B5B2B0FD
:1023000000AF07F1AC0300221A605A609A60DA60ED
:102310001A615A619A6107F1940300221A605A60A7
:102320009A60DA601A615A613B1D902200211846BA
:1023300011F0FEFF40237B600023BB643B1D184669
:102340000FF05CF80346002B01D000F07FFC10205A
:10235000FEF7F8FE0120FEF7C5FE4FF40073C7F844
:1023600094300223C7F898300323C7F89C30002329
:10237000C7F8A0300023C7F8A4300723C7F8A83057
:1023800007F19403194635480FF00FFE4FF48063B0
:10239000C7F894300223C7F898300323C7F89C305D
:1023A0000023C7F8A0300023C7F8A4300723C7F8DC
:1023B000A83007F19403194628480FF0F6FD4FF4B2
:1023C0008053C7F894300223C7F898300323C7F826
:1023D0009C300023C7F8A0300023C7F8A43007239F
:1023E000C7F8A83007F1940319461C480FF0DDFD2B
:1023F0004FF4E133C7F8AC300023C7F8B030002306
:10240000C7F8B4300023C7F8B8300C23C7F8BC3085
:102410000023C7F8C0300023C7F8C43007F1AC036D
:1024200019460F4810F05EFF0D48FEF705FE00212B
:102430000B48FEF711FE00210948FEF7E9FD0021D7
:102440000748FEF7D1FD0648FEF719FE0448FEF7DF
:10245000BBFD00BFC837BD4680BD00BF00000240C5
:102460000010014080B5B2B000AF07F1AC0300220C
:102470001A605A609A60DA601A615A619A6107F1CB
:10248000940300221A605A609A60DA601A615A61F5
:102490003B1D90220021184611F04AFF4FF40063C3
:1024A0007B600023FB653B1D18460EF0A7FF03462B
:1024B000002B01D000F0CAFB2020FEF743FE0420D1
:1024C000FEF710FE4023C7F894300223C7F8983077
:1024D0000323C7F89C300023C7F8A0300023C7F8B7
:1024E000A4300823C7F8A83007F1940319462848F8
:1024F0000FF05BFD8023C7F894300223C7F89830B3
:102500000323C7F89C300023C7F8A0300023C7F886
:10251000A4300823C7F8A83007F1940319461C48D3
:102520000FF043FDFEF7DAF80346002209211846B2
:10253000FEF72AF9034619464720FEF7FBF8472025
:10254000FEF7DAF84FF4E133C7F8AC300023C7F8F0
:10255000B0300023C7F8B4300023C7F8B8300C23DC
:10256000C7F8BC300023C7F8C0300023C7F8C43018
:1025700007F1AC031946074810F0B4FE0548FEF712
:102580007EFD0448FEF720FD00BFC837BD4680BD74
:10259000000802400014014080B500AF4FF48000F5
:1025A000FEF7A0FDFEF79AF8034600220121184627
:1025B000FEF7EAF8034619463820FEF7BBF8382044
:1025C000FEF79AF8FEF78AF8034600220A21184619
:1025D000FEF7DAF8034619463A20FEF7ABF83A2040
:1025E000FEF78AF8FEF77AF8034600220121184622
:1025F000FEF7CAF8034619463B20FEF79BF83B203E
:10260000FEF77AF8FEF76AF8034600220A21184618
:10261000FEF7BAF8034619463C20FEF78BF83C203B
:10262000FEF76AF8FEF75AF8034600220921184619
:10263000FEF7AAF8034619464420FEF77BF844202B
:10264000FEF75AF8FEF74AF8034600220921184619
:10265000FEF79AF8034619464520FEF76BF8452029
:10266000FEF74AF800BF80BD80B586B000AF3B469C
:1026700000221A605A609A60DA601A615A6110206A
:10268000FEF730FD0420FEF72DFD8020FEF72AFD29
:102690000120FEF727FD0220FEF724FD0820FEF7AB
:1026A00021FD0421BF48FEF70EFD0821BD48FEF7BD
:1026B0000AFD1021BB48FEF706FD2021B948FEF7B0
:1026C00002FD4021B748FEF7FEFC4FF40051B6482A
:1026D000FEF7F9FC4FF48041B348FEF7F4FC4FF4E9
:1026E0000041B148FEF7EFFC4FF40061AF48FEF740
:1026F000EAFC4FF40061AE48FEF7E5FC4FF4004100
:10270000AB48FEF7E0FC0121AA48FEF7DCFC022101
:10271000A848FEF7D8FC1021A648FEF7D4FC2021DB
:10272000A448FEF7D0FC4021A248FEF7CCFC0421CF
:102730009E48FEF7BAFC4FF480619A48FEF7B5FC5C
:102740004FF400619748FEF7B0FC4FF40041954804
:10275000FEF7ABFC4FF480619448FEF7A6FC4FF403
:1027600080519248FEF7A1FC4FF480719148FEF72A
:102770009CFC4FF400718F48FEF797FC4FF480717A
:102780008948FEF792FC4FF480718948FEF78DFC72
:1027900004218848FEF789FC80218648FEF785FCE5
:1027A0004FF480718148FEF780FC4FF400717F4840
:1027B000FEF77BFC01217B48FEF777FC022179487C
:1027C000FEF773FC04233B6001237B600023BB60A6
:1027D0000023FB6000233B613B46194671480FF024
:1027E000E4FB08233B6001237B600023BB600023E4
:1027F000FB6000233B613B4619466A480FF0D5FB5E
:1028000010233B6001237B600023BB600023FB603F
:1028100000233B613B46194662480FF0C6FB20236C
:102820003B6001237B600023BB600023FB6000232F
:102830003B613B4619465B480FF0B7FB40233B60CA
:1028400001237B600023BB600023FB6000233B610E
:102850003B46194653480FF0A8FB4FF400533B602A
:1028600001237B600023BB600023FB6000233B61EE
:102870003B4619464C480FF098FB4FF480433B60B1
:1028800001237B600023BB600023FB6000233B61CE
:102890003B46194644480FF088FB4FF400433B6029
:1028A00001237B600023BB600023FB6000233B61AE
:1028B0003B4619463C480FF078FB02233B6003235C
:1028C0007B6000233B613B46194639480FF06DFBA6
:1028D00004233B6001237B600023BB600023FB607B
:1028E00000233B613B46194630480FF05EFB4FF436
:1028F00080633B6001237B600023BB600023FB609F
:1029000000233B613B46194626480FF04EFB4FF42F
:1029100000633B6001237B600023BB600023FB60FE
:1029200000233B613B4619461E480FF03EFB4FF427
:1029300000433B6001237B600023BB600023FB60FE
:1029400000233B613B46194616480FF02EFB4FF41F
:1029500080633B6001237B600023BB600023FB603E
:1029600001233B613B46194610480FF01EFB4FF414
:1029700000633B6001237B600023BB600023FB609E
:1029800002233B613B46194608480FF00EFB4FF40B
:1029900080533B6001237B600023BB600023FB600E
:1029A000002309E000100240000802400004024039
:1029B00000000240000C02403B613B4619469E4825
:1029C0000FF0F3FA4FF480733B6001237B60032325
:1029D000BB600023FB6000233B613B4619469748E0
:1029E0000FF0E3FA4FF400733B6001237B60032395
:1029F000BB600023FB6000233B613B4619468F48C8
:102A00000FF0D3FA4FF480633B6000237B60002318
:102A10003B613B46194689480FF0C7FA4FF4006303
:102A20003B6000237B6000233B613B4619468348A3
:102A30000FF0BBFA4FF480733B6001237B600023EF
:102A4000BB600023FB6001233B613B4619467C4889
:102A50000FF0ABFA4FF400733B6000237B60002360
:102A60003B613B46194676480FF09FFA4FF480735E
:102A70003B6001237B600323BB600023FB600023DA
:102A80003B613B4619466F480FF08FFA4FF40063E5
:102A90003B6001237B600023BB600023FB600023BD
:102AA0003B613B46194667480FF07FFA4FF40043FD
:102AB0003B6001237B600023BB600023FB6000239D
:102AC0003B613B4619465F480FF06FFA01233B60BC
:102AD00001237B600023BB600023FB6000233B617C
:102AE0003B46194655480FF060FA02233B6001232C
:102AF0007B600023BB600023FB6000233B613B46FF
:102B000019464E480FF051FA04233B6001237B60C5
:102B10000023BB600023FB6000233B613B4619465A
:102B200046480FF042FA08233B6000237B600023F5
:102B30003B613B46194641480FF037FA10233B6092
:102B400001237B600023BB600023FB6000233B610B
:102B50003B46194639480FF028FA20233B600123F1
:102B60007B600023BB600023FB6000233B613B468E
:102B7000194632480FF019FA40233B6001237B606D
:102B80000023BB600023FB6000233B613B461946EA
:102B90002A480FF00AFA80233B6001237B60002360
:102BA000BB600023FB6000233B613B461946234882
:102BB0000FF0FBF94FF480733B6001237B6000232F
:102BC000BB600023FB6000233B613B4619461A486B
:102BD0000FF0EBF94FF400733B6001237B6000239F
:102BE000BB600023FB6000233B613B461946124853
:102BF0000FF0DBF901233B6001237B600023BB6006
:102C00000023FB6000233B613B4619460E480FF052
:102C1000CCF902233B6001237B600023BB600023CF
:102C2000FB6000233B613B46194607480FF0BDF9A6
:102C300000BF1837BD4680BD00040240000C0240B2
:102C400000080240000002400010024080B400AFC3
:102C500072B600BF00BFFDE780B483B000AF0F4B7A
:102C60001B6C0E4A43F0805313640C4B1B6C03F037
:102C700080537B607B68094B5B6C084A43F480435C
:102C80005364064B5B6C03F480433B603B6800BFBE
:102C90000C37BD465DF8047B704700BF003802402A
:102CA00080B485B000AF78607B681B680A4A9342A5
:102CB0000BD10A4B1B6B094A43F480531363074B38
:102CC0001B6B03F48053FB60FB6800BF1437BD46E9
:102CD0005DF8047B704700BF0030024000380240BE
:102CE00080B400AF00BFFDE780B400AF00BFFDE7D8
:102CF00080B400AF00BFFDE780B400AF00BFFDE7C8
:102D000080B400AF00BFFDE780B400AF00BFBD4698
:102D10005DF8047B704780B400AF00BFBD465DF82E
:102D2000047B704780B400AF00BFBD465DF8047BF4
:102D3000704780B500AF06F0BFFE06F0E7FD0DF06E
:102D4000C1FB0DF08BFC08F069F900BF80BD80B5B8
:102D500000AF07F041FC00BF80BD80B500AF06F0BA
:102D600005FE00BF80BD80B500AF06F019FF00BFB3
:102D700080BD80B400AF01231846BD465DF8047BDA
:102D8000704780B582B000AF7860396011F030FBD9
:102D9000034616221A604FF0FF3318460837BD4627
:102DA00080BD80B582B000AF78604FF0FF317868A9
:102DB000FFF7E7FF00BFFDE780B586B000AFF86022
:102DC000B9607A6000237B610AE0AFF300800146BE
:102DD000BB685A1CBA60CAB21A707B6901337B6146
:102DE0007A697B689A42F0DB7B6818461837BD46E3
:102DF00080BD80B586B000AFF860B9607A6000230E
:102E00007B6109E0BB685A1CBA601B781846AFF3B7
:102E100000807B6901337B617A697B689A42F1DBD0
:102E20007B6818461837BD4680BD80B483B000AFBC
:102E300078604FF0FF3318460C37BD465DF8047BD1
:102E4000704780B483B000AF786039603B684FF45E
:102E500000525A60002318460C37BD465DF8047BCB
:102E6000704780B483B000AF7860012318460C37F8
:102E7000BD465DF8047B704780B485B000AFF86054
:102E8000B9607A60002318461437BD465DF8047BAC
:102E90007047000080B586B000AF7860144A154BCB
:102EA000D31A7B617B693B61134B1B68002B02D1FA
:102EB000114B124A1A60104B1A687B6813443A6926
:102EC0009A4207D211F094FA03460C221A604FF08E
:102ED000FF3309E0084B1B68FB60074B1A687B68EF
:102EE0001344054A1360FB6818461837BD4680BD79
:102EF000000008200004000050440020586B03200C
:102F000080B400AF064BD3F88830054A43F4700311
:102F1000C2F8883000BFBD465DF8047B704700BF33
:102F200000ED00E0DFF834D0FFF7EAFF0C480D4970
:102F30000D4A002302E0D458C4500433C4188C4214
:102F4000F9D30A4A0A4C002301E013600432A2427A
:102F5000FBD311F053FAFEF713F970470000082075
:102F60000000002010440020E894030810440020D2
:102F7000546B0320FEE780B500AF00F0EFF803F0DC
:102F80009FFC04F0ABFB01F0B5FF00F06FFF04F015
:102F9000EBF904F003F905F01FFF00BF80BD80B519
:102FA00000AF012000F0FCF8042003F0BBFC02207D
:102FB00004F0BAFB052001F0BFFF062004F00EFA72
:102FC000072000F079FF082004F028F90A2005F016
:102FD0003BFF00BF80BD80B500AF0DF05BF900BFC7
:102FE00080BD000080B582B000AF7860396006F027
:102FF000B3FA07F059FC07F0D1F806F04FFD06F0E0
:1030000035FC7B68012283F84D207B68002283F821
:10301000522000F065FD0346002B2AD005F060FF2A
:103020001E4B5A687B689A621C4B1A897B68DA854A
:103030001A4B5A897B681A86184B9A897B685A867C
:1030400005F072FF7B689A6A7B68DB8D19467B68A6
:103050001B8E0B447968498E0B44114981FB030197
:103060008911DB17CB1A02FB03F39A0A7B685A63B8
:1030700010E07B680B4A9A627B686422DA857B6881
:1030800040F6D8621A867B6864225A867B6840F2D2
:10309000A2725A6300BF0837BD4680BD004002409F
:1030A000D34D621020A1070080B584B000AF7860D6
:1030B00039607B685B69FB607B685B69396878684D
:1030C00098470346FB72FB7A002B08D1FB68064940
:1030D000786898477B685B6904497868984700BFBF
:1030E0001037BD4680BD00BF88870308748703087A
:1030F00080B584B002AF786039607B68002B03D163
:103100000021134805F0E0FE78683B685A683B6888
:103110009B68009313460F4A0F490DF00DF93B6869
:103120001A687B685A617B6818337A681B211846D5
:103130000DF062F97B68183318460DF09FF93B6873
:103140001A7B7B6883F8482000BF0837BD4680BDE6
:1031500064870308A9300208E52F020890B587B0FC
:1031600002AF122300930A23B422094909480CF044
:10317000C9FC094B3C460FCB84E80F003B4619467F
:103180000648FFF7B5FF00BF1437BD4690BD00BF2E
:10319000E0440020B0440020C062030854440020F2
:1031A00080B582B000AF0346FB71FB791946034836
:1031B0000DF0DCF800BF0837BD4680BD5444002048
:1031C00080B582B000AF786039603B681B88013BF6
:1031D0001D2B58D801A252F823F000BF5532020827
:1031E00087320208873202088732020887320208D3
:1031F00087320208873202088732020887320208C3
:1032000087320208873202088732020887320208B2
:1032100087320208873202088732020887320208A2
:103220008732020887320208873202088732020892
:103230008732020887320208873202088732020882
:1032400087320208873202086332020873320208AA
:103250007D3202087B68183318460DF00FF9012300
:1032600012E021200CF0E2FE7B68094A5A6100233B
:103270000AE07B68074A5A61002305E07B68064A3A
:103280005A61002300E0022318460837BD4680BD7E
:103290009D320208553402087135020880B588B0A5
:1032A00000AF786039603B681B88013B202B00F23F
:1032B000C78001A252F823F03D33020841340208CE
:1032C000AB33020841340208413402084134020899
:1032D00041340208413402084134020841340208F2
:1032E00041340208413402084134020841340208E2
:1032F00041340208413402084134020841340208D2
:1033000041340208413402084134020841340208C1
:1033100041340208413402084134020841340208B1
:103320002F340208413402084134020841340208B3
:10333000B9330208D9330208F93302087B6818331D
:10334000002244F6206118460DF078F87B6893F867
:103350002C301946786800F060FA786800F076FA48
:103360007B68DB8DFB607B681B8E3B617B685B8EC3
:103370007B617B689B6ABB617B6893F82C30FB6147
:103380007B6893F82D30184606F0CEF907F10C0350
:10339000184606F0C9FE06F0C3FA07F0D1F87B68BC
:1033A000002283F8482001234BE07B68183318463D
:1033B0000DF064F8012344E07B6893F84830002B5B
:1033C00004D17B68012283F8482003E07B68032254
:1033D00083F84820012334E07B6893F84830012BC0
:1033E00004D17B68022283F8482003E07B68032233
:1033F00083F84820012324E022200CF017FE7B688C
:1034000093F84830022B04D17B68052283F84820CA
:1034100003E07B68032283F848200C4B1B681846A6
:1034200000F036FE7B680A4A5A61002309E07B6897
:10343000042283F848207B68054A5A61002300E093
:10344000022318462037BD4680BD00BF080000207B
:10345000C131020880B582B000AF786039603B6846
:103460001B88242B1ED0242B73DC232B3ED0232B34
:103470006FDC012B02D0222B2BD06AE07B68183343
:1034800018460CF0FBFF7B681B6C344A53607B686A
:10349000DB6B324A1360324B1B68184603F000FEA8
:1034A000012357E02D4B5B68B3F5804F28BF4FF4E5
:1034B00080439AB22B4B1A80284B1B685B00294A29
:1034C000128852001146284A184607F043FA012391
:1034D00040E0234B1868234B1B881A467B6893F8FF
:1034E0004530214903F0B8FD012333E01B4B5B68F5
:1034F0001C4A12889B1A194A5360184B1B68194AB8
:1035000012881344154A1360144B5B68002B16D0C5
:10351000124B5B68B3F5804F28BF4FF480439AB2DB
:10352000104B1A800D4B1B685B000E4A128852002C
:1035300011460D4A184607F00DFA01230AE0084B20
:103540001B68184603F0BCFD7B68084A5A610023DB
:1035500000E0022318460837BD4680BD9445002090
:1035600004000020A0C50020A0450020C1310208B1
:1035700080B582B000AF786039603B681B88012B52
:1035800002D0222B10D01CE07B68183318460CF0B8
:1035900075FF7B68DB6B5B000C4A4FF400411846FB
:1035A00007F0D8F901230DE0084807F0D5FB084BD8
:1035B0001B68184603F08CFE7B68064A5A6100239C
:1035C00000E0022318460837BD4680BDA045002014
:1035D0000C000020C131020880B584B000AFF86053
:1035E000B9607A60FB70FB68BA68DA63FB687A6876
:1035F0001A64FB68FA7883F84520084B1B684FF67D
:10360000FF72A3F84220FB68054918460CF0D8FE6B
:10361000002318461037BD4680BD00BF04000020BF
:10362000B087030880B582B000AF78607B68002265
:10363000DA637B684FF480421A647B68012283F866
:103640004520084B1B684FF6FF72A3F842207B68A9
:10365000054918460CF0B4FE002318460837BD464D
:1036600080BD00BF04000020B087030880B582B091
:1036700000AF78607B68044918460CF0A1FE002377
:1036800018460837BD4680BDD887030880B582B08C
:1036900000AF78607B68044918460CF091FE002367
:1036A00018460837BD4680BDEC87030880B582B058
:1036B00000AF78607B68044918460CF081FE002357
:1036C00018460837BD4680BD0088030880B584B021
:1036D00000AFF860B9607A60BB68012B02D87B68E4
:1036E000642B01D9062318E0FB6893F84D30002BBA
:1036F00006D0002005F0ECFEFB68002283F84D2088
:103700007968B86806F04CF87B68D9B2FA68BB688B
:10371000134449330A461A70002318461037BD4631
:1037200080BD80B582B000AF786039603B68242BE3
:1037300001D9062314E07B6893F84D30012B06D0A5
:10374000012005F0C5FE7B68012283F84D20386812
:1037500005F03AFF3B68DAB27B6883F84B20002320
:1037600018460837BD4680BD80B582B000AF78608E
:103770007B6893F84D30012B06D0012005F0A8FEA0
:103780007B68012283F84D2005F040FF7B68FF2213
:1037900083F84B20002318460837BD4680BD80B50E
:1037A00082B000AF786039603B68082B01D90623EE
:1037B00014E07B6893F84D30012B06D0012005F012
:1037C00087FE7B68012283F84D20386805F034FFBE
:1037D0003B68DAB27B6883F84C2000231846083730
:1037E000BD4680BD80B582B000AF78607B6893F83D
:1037F0004D30012B06D0012005F06AFE7B680122C6
:1038000083F84D2005F072FF7B68FF2283F84C207F
:10381000002318460837BD4680BD80B582B000AF92
:10382000786039603B68242B01D906230AE006F052
:1038300045FD386806F06AFD3B68DAB27B6883F8BC
:103840004E20002318460837BD4680BD80B582B0A3
:1038500000AF786006F046FD002318460837BD46E5
:1038600080BD000080B582B000AF786039603B68F1
:103870001B68002B04D03B681B68154A934201D992
:10388000062321E03B68DB68B3F5006F01D906230E
:103890001AE03B681A687B689A623B68DA887B6842
:1038A000DA853B681A897B681A863B685A897B6887
:1038B0005A863B68DA687B685A633B681A697B689A
:1038C0009A6300F0E5F8002318460837BD4680BD2E
:1038D00050F80C0080B483B000AF786039603B686A
:1038E0005B79642B01D9062305E03B685A797B6834
:1038F00083F82D20002318460C37BD465DF8047B65
:10390000704780B483B000AF786039603B681B7942
:10391000002B03D03B681B79242B01D9062305E03B
:103920003B681A797B6883F82C20002318460C37F3
:10393000BD465DF8047B7047B0B582B000AF7860DB
:1039400039603B681B68002B04D03B681B68194A30
:10395000934201D9062328E03B681B79002B03D052
:103960003B681B79242B01D906231EE03B685B7959
:10397000642B01D9062318E03B68DB68B3F5006FC0
:1039800001D9062311E03B681B69002B01D10623F6
:103990000BE07B683A6803F1280415460FCD0FC48D
:1039A0002B68236000F074F8002318460837BD46E2
:1039B000B0BD00BF50F80C00B0B483B000AF786069
:1039C00039603A687B68154603F128040FCC0FC5AF
:1039D00023682B6000BF0C37BD46B0BC70470000A9
:1039E00080B584B000AF78607B682833FB60FB68EB
:1039F0001B68002B04D0FB681B68134A934201D953
:103A000006231CE0FB681B79002B03D0FB681B79A5
:103A1000242B01D9062312E0FB685B79642B01D9C2
:103A200006230CE0FB68DB68B3F5006F01D90623C1
:103A300005E07B68054918460CF0C2FC00231846D7
:103A40001037BD4680BD00BF50F80C009C870308AE
:103A500080B582B000AF78600B467B807B889B038B
:103A60001A467B68DA637B684FF480421A647B688D
:103A7000012283F844207B68044918460CF0A0FC1E
:103A8000002318460837BD4680BD00BFC487030821
:103A900080B582B000AF05F023FA0F4B4FF0BC3277
:103AA0001A600E4B9B6A0C4A53600C4BDA8D0A4B22
:103AB0001A810A4B1A8E084B5A81084B5A8E064BB4
:103AC0009A8100237B60044A7B68136105F02CFA1D
:103AD00000BF0837BD4680BD00400240544400206E
:103AE00080B500AF05F0FCF9084B1B68B3F1BC3F93
:103AF00006D014220021054810F01AFC002302E031
:103B000005F012FA0123184680BD00BF00400240B4
:103B100080B483B000AF786039607B683A689A619E
:103B200000BF0C37BD465DF8047B704780B483B09E
:103B300000AF786039603B681A047B689A6100BF07
:103B40000C37BD465DF8047B7047000080B582B03D
:103B500000AF78600B46FB707B68FA781146184618
:103B60000BF0AEFD00F0E8FA02467B68C3F80422D1
:103B70007B68002283F80C227B68012283F80D22E7
:103B8000FB78032B04D8FB7806497A6841F8232098
:103B90007B68012118460BF035FA00BF0837BD4697
:103BA00080BD00BFA8C8002080B582B000AF78609B
:103BB0007A687B6893F80032194610460BF080FD56
:103BC0007B68012118460BF01DFA00F0B5FA024699
:103BD0007B68C3F804227B68002283F80C2200BFB4
:103BE0000837BD4680BD80B483B000AF78603960CF
:103BF0007B683A68C3F8082200BF0C37BD465DF801
:103C0000047B704780B586B000AFF860B9607A6019
:103C1000FB687A68B96818460BF0ACFC00F08CFAC7
:103C20007861FB6893F8E230002B35D0FB6893F89D
:103C3000E4301A4613465B0013449B00FA681344B1
:103C40003B613B691B687A69D31A40F6B8329342EC
:103C50001ED9FB6893F80C3283F00103DBB2002B12
:103C60001AD0FB68D3F80832002B04D0FB68D3F8D5
:103C70000832F8689847FB68012283F80C22FB6839
:103C800093F80D32002B07D0F868FFF78DFF03E0A3
:103C9000FB68002283F80C22FB687A69C3F80422CF
:103CA00000BF1837BD4680BD80B483B000AF7860D8
:103CB00000BF0C37BD465DF8047B704780B500AF90
:103CC0004FF48072084909480CF042F84FF48072B2
:103CD000074908480CF03CF8064B044A06490748D7
:103CE0000BF0F4FD00BF80BDE0C90020B8C9002082
:103CF000E0CA0020CCC9002000780040E0CB0020C2
:103D000080B582B000AF786039607B68002B03D14A
:103D100001210F4805F0D8F87B680E4A9A610E49D8
:103D20000C48FFF760FF7B6824330A220A211846FB
:103D30000CF084FB09480BF0E5FD7B689B690021D2
:103D40001846FFF703FF00BF0837BD4680BD00BF20
:103D50001488030898C60020A93C0208E0CB002084
:103D600080B584B000AF786039607B68002B03D1E8
:103D70000421124805F0A8F83B68002B03D1052167
:103D80000E4805F0A1F87B685B69FB607B685B69A6
:103D90003968786898470346FB72FB7A002B08D194
:103DA000FB680749786898477B685B6905497868CC
:103DB000984700BF1037BD4680BD00BF1488030878
:103DC0002C8803082088030880B584B002AF78608F
:103DD00039607B68002B03D10221214805F074F87B
:103DE00078683B68DA683B681B69009313461D4A94
:103DF0001D490CF0A1FA7B6824337A680D2118461E
:103E00000CF0FAFA7B6834337A68102118460CF00B
:103E1000F3FA7B6844337A68112118460CF0ECFA07
:103E20003B681A687B685A613B685A687B689A618C
:103E30003B689A687B68DA617B68243318460CF02B
:103E40001DFB7B68343318460CF018FB7B68443349
:103E500018460CF013FB00BF0837BD4680BD00BFFD
:103E600014880308613D0208013D0208B0B588B01E
:103E700002AFFFF723FF0C2300930A2378220A499D
:103E80000A480BF03FFE0A4B3C1D1D460FCD0FC4E8
:103E90002B6823603B1D19460648FFF795FF00BFBE
:103EA0001837BD46B0BD00BF20C60020F8C50020B1
:103EB000D0620308A4C5002080B582B000AF0346DD
:103EC000FB71FB79194603480CF050FA00BF083724
:103ED000BD4680BDA4C5002080B582B000AF78602B
:103EE00039607B68002B03D10321594804F0ECFFB3
:103EF0003B681B88013B102B00F2A58001A252F801
:103F000023F000BF493F020847400208474002082B
:103F1000474002084740020847400208474002085D
:103F2000474002084740020847400208474002084D
:103F300047400208653F0208AB3F0208D93F02082C
:103F400009400208394002084FF49671032004F03A
:103F5000E3FD7B6824330A220A2118460CF06EFA2E
:103F6000012371E0032004F00FFE3A4B4FF48072FE
:103F70001A607B68DB69374A374918460BF0E2FC68
:103F80000346002B08D07B689B69324A126832498D
:103F90001846FFF737FE06E07B689B690022002188
:103FA0001846FFF72FFE01234EE0032004F0D2FD58
:103FB0007B68243318460CF061FA4FF400612748FF
:103FC000FFF7A6FD7B683433002244F620611846D3
:103FD0000CF034FA012337E04FF49671032004F01B
:103FE0009BFD7B68343318460CF048FA4FF40061AF
:103FF0001A48FFF79BFD7B6824330A220A211846E2
:104000000CF01CFA01231FE04FF49671032004F01A
:1040100083FD7B68343318460CF030FA4FF40061AE
:104020000E48FFF783FD7B6824330A220A211846D5
:104030000CF004FA012307E0032004F08BFD04F0E8
:104040008BFE012300E0022318460837BD4680BDE1
:104050001488030810000020B8C8002000040240A3
:1040600080B586B000AF786007F10C0300221A60BB
:104070005A609A600E23BB817B6807F10C021146DF
:1040800018460CF09DF9002318461837BD4680BD30
:1040900080B586B000AF786007F10C0300221A608B
:1040A0005A609A600F23BB817B6807F10C021146AE
:1040B00018460CF085F9002318461837BD4680BD18
:1040C00080B582B000AF78607B68443300224FF443
:1040D000FA6118460CF0B2F9002318460837BD46BD
:1040E00080BD000080B582B000AF0346FB71064B77
:1040F000DB699B6818460BF033FF03469BB21846FA
:104100000837BD4680BD00BFA4C5002080B582B081
:1041100000AF03460A46FB711346BB71054BDB69D2
:10412000BA79114618460BF045FC00BF0837BD466A
:1041300080BD00BFA4C5002080B500AF0CF010FA10
:104140000346184680BD000080B586B000AF3960D8
:1041500011461A460346FB710B46BB7113467B7131
:104160007B79032B34D87B791C4A52F823303B618E
:104170003B69002B2ED01A4B1B68002B05D0184B27
:104180001B68BA79F8793968984700F039FEF86009
:1041900000F040FEB86000237B6114E07B69DB0027
:1041A000FA6813441B78FA799A4209D17B69DB00DB
:1041B000FA6813445B68BA793968386998470AE045
:1041C0007B6901337B617A69BB689A42E6DB02E076
:1041D00000BF00E000BF1837BD4680BDA8C8002062
:1041E000F0CB002080B584B000AFF8607A601A464A
:1041F0000B46FB721346BB72FB68BA7A114618462F
:104200000AF05CFF0346002B05D0F868BB7AF97A08
:104210007A680AF00BFF00BF1037BD4680BD000072
:1042200080B500AF074BDB6918460BF009FC054B66
:10423000DB6918460BF033FC034B4FF0FF321A6278
:1042400000BF80BDA4C500200078004080B584B0C8
:1042500000AFF860B9601346FB7100230022012112
:10426000F868FFF7BFFF044B1B681846FFF728FFED
:1042700000BF1037BD4680BD1400002080B584B05B
:1042800000AFF860B9601346FB71FB79BA6803218F
:10429000F868FFF7A7FF00BF1037BD4680BD80B5A7
:1042A00088B002AFF860B9601346FB71BB681B7839
:1042B000FB75BB6801331B78BB75BB6802331B7889
:1042C0007B75BB6803331B783B75FB79BA680521A6
:1042D000F868FFF787FFF97DBA7D787D3B7D009315
:1042E000034624200BF0A2FE3B7D7A7DB97DF87D4C
:1042F00006F06CFE00BF1837BD4680BD80B586B0A5
:1043000000AFF860B9601346FB71FF233B75BB68D3
:104310001B78FB75084B1B68FA7D1146184603F0A5
:10432000C3F807F1140201230921F868FFF75AFFC7
:1043300000BF1837BD4680BD200000202DE9F043A6
:104340009BB00CAFF861B9611346FB754FF63F7334
:10435000BB840023FB86BB691B781BB21B021AB20D
:10436000BB6901331B781BB21343BB86BB690233A5
:104370001B781BB21B021AB2BB6903331B781BB23A
:1043800013437B86BB6904331B781BB21B021AB232
:10439000BB6905331B781BB213433B86BB690633ED
:1043A0001B7887F82F30BB6907331B7887F82E30CE
:1043B000BB6908331B7887F82D30BB6909331B783C
:1043C00087F82C30BB690A331B7887F82B30BB6920
:1043D0000B331B781BB21B021AB2BB690C331B7860
:1043E0001BB213431BB23B85BB690D331B7887F8A7
:1043F000273097F82F30072B02D9FB8E0133FB862D
:1044000097F82E30072B02D9FB8E0133FB8697F8E5
:104410002C300F2B02D9FB8E0133FB8697F82B3003
:104420000F2B02D9FB8E0133FB86FB8E002B57D15D
:10443000344B1868B98E7A8E3C8E97F827300693E5
:104440003B8D059397F82B30049397F82C3003930A
:1044500097F82D30029397F82E30019397F82F306C
:104460000093234604F020FAB7F934C0B7F934308A
:104470004FEA132EB7F93280B7F932301A0AB7F97A
:104480003010B7F93030180A97F82F4097F82E50AF
:1044900097F82D6097F82C303B6197F82B30FB6034
:1044A000B7F828904B46BB603B8D1B0A9BB27B60E4
:1044B00097F827300A937B680993BB680893FB68D9
:1044C00007933B6906930596049503940290019126
:1044D000009243467246614603200BF0A7FD05E0BB
:1044E0003E2387F824303E2387F8253007F1240245
:1044F00002230B21F869FFF775FE00BF3C37BD466C
:10450000BDE8F0831800002080B586B000AFF860E9
:10451000B9601346FB71FF23FB7505200BF086FD88
:10452000074B1B68184603F0FFFC07F11702012335
:104530000D21F868FFF756FE00BF1837BD4680BD55
:104540001800002080B586B000AFF860B96013464F
:10455000FB71FF23FB7504200BF068FD074B1B6804
:10456000184603F0BDFC07F1170201230F21F8687C
:10457000FFF738FE00BF1837BD4680BD1800002089
:1045800090B58BB002AFF860B9601346FB714FF67F
:104590003F73BB820023FB77BB681B781B02BA68A2
:1045A0000132127813439BB21A465201D21A92007A
:1045B0001344DB00BB83BB6802331B78FB76BB680C
:1045C00003331B781BB21B021AB2BB6804331B787F
:1045D0001BB213431BB23B83BB8B4EF6602293424C
:1045E00002D9FB7F0133FB77FB7E042B03D9FB7FD2
:1045F0000133FB7722E0FB7E042B0DD107F114027F
:1046000002231121F868FFF7EDFD2D4B1B680421F3
:10461000184603F063FF4FE0294B1B68184603F070
:10462000A8FD0346FB75FA7DFB7E42FA03F303F017
:104630000103002B02D0FB7F0133FB773B8BB3F5EB
:10464000FA7F04D33B8B40F6B832934202D9FB7F0A
:104650000133FB77FB7F002B23D1BB8B184600F087
:10466000E7FC174B1B68FA7E1146184603F036FF2D
:10467000134B1B683A8B1146184603F048FFB98B61
:10468000BB8B1B0A9BB21C46F87E3B8B3A8B120AF3
:1046900092B2019200930346224609200BF0C6FC19
:1046A00003E03E233B753E237B7507F11402022392
:1046B0001121F868FFF796FD2437BD4690BD00BF75
:1046C0001800002080B586B000AFF860B9601346CE
:1046D000FB71FF23FB7507F1170201231321F86813
:1046E000FFF780FD0A200BF0A1FC00F065FC00BF85
:1046F0001837BD4680BD80B586B000AFF860B960A0
:104700001346FB71FF23FB7507F1170201231521E7
:10471000F868FFF767FD0B200BF088FC00F070FCD9
:1047200000BF1837BD4680BDF0B59BB008AF7861BB
:1047300039611346FB734FF63F733B860023A7F89E
:1047400046303B691B781A063B6901331B781B0412
:104750001A433B6902331B781B0213433A69033245
:10476000127813433B643B6904331B781B029BB2F2
:104770003A69053212781343FB873B6906331B788D
:104780001B029BB23A69073212781343BB873B691D
:1047900008331B781B029BB23A6909321278134323
:1047A0007B873B6CB3F57A7F03D33B6C484A9342DB
:1047B00004D9B7F846300133A7F84630FB8F002BF9
:1047C00004D1B7F846300133A7F84630BB8F002B31
:1047D00004D1B7F846300133A7F846307B8F002B61
:1047E00004D1B7F846300133A7F84630FA8FBB8FB3
:1047F0001A447B8F13441A463B6C02FB03F3354A81
:10480000A2FB03231B0C7B637B6BB3F5006F04D906
:10481000B7F846300133A7F84630B7F84630002BDA
:1048200044D13B6CFB61FB8F7B84BB8FBB847B8F54
:10483000FB847B6BBB62264A3B6CB2FBF3F3FB62EF
:10484000254B1B6807F11C0211461846FFF70AF8B2
:104850000346002B23D13B6C1D0A3B6C1E0C3B6CAA
:104860001B0EFA8FF98F090A89B2B960B98FB88F18
:10487000000A80B27860788F7C8F240AA4B20694F4
:104880000590786804900391B968029101920093B1
:1048900033462A46396C1E200BF0C8FB0CE03E2341
:1048A00087F830303E2387F8313005E03E2387F823
:1048B00030303E2387F8313007F1300202231721D0
:1048C0007869FFF78FFC00BF4C37BD46F0BD00BFD5
:1048D00040420F00D34D62101C00002080B58AB00A
:1048E00000AFF860B9601346FB714FF63F73BB84AD
:1048F000BB681B7887F8273097F82730642B06D9D8
:104900003E2387F824303E2387F8253029E0164BD4
:104910001B6807F1100211461846FFF74DF897F88B
:1049200027307B75104B1B6807F1100211461846A3
:10493000FEF7D0FF0346002B06D197F82730194623
:104940001F200BF073FB05E03E2387F824303E2345
:1049500087F8253007F1240202231921F868FFF7B0
:1049600041FC2837BD4680BD1C00002080B58AB0C0
:1049700000AFF860B9601346FB714FF63F73BB841C
:10498000BB681B7887F8273097F82730242B03D88B
:1049900097F82730002B06D13E2387F824303E239A
:1049A00087F8253022E0174B1B6807F110021146EB
:1049B0001846FFF701F897F827303B75114B1B6835
:1049C00007F1100211461846FEF79BFF0346002B25
:1049D00006D197F82730194620200BF027FB05E079
:1049E0003E2387F824303E2387F8253007F1240240
:1049F00002231B21F868FFF7F5FB00BF2837BD46EF
:104A000080BD00BF1C00002080B586B000AFF860FC
:104A1000B9601346FB713F233B750D4B1B6818466D
:104A2000FEF7DEFF0346002B02D03E233B7504E079
:104A3000084B1B681846FFF713FB07F1140201230C
:104A40001D21F868FFF7CEFB00BF1837BD4680BDBB
:104A50001C0000201400002080B58AB000AFF86070
:104A6000B9601346FB71194B1B6807F11002114620
:104A70001846FEF7A1FFFB69002B06D1002387F83B
:104A80002430002387F8253014E0FB691B09FB84E0
:104A9000FB6903F00F03002B02D0FB8C0133FB8476
:104AA000FB8C1B0A9BB2DBB287F82430FB8CDBB299
:104AB00087F8253007F1240202231F21F868FFF749
:104AC00091FB00BF2837BD4680BD00BF1C00002001
:104AD00080B58CB000AFF860B9601346FB714FF63B
:104AE0003F733B85BB681B7887F82D30214B1B68D3
:104AF00007F1140211461846FEF75EFF3B6A1B09D8
:104B0000FB853B6A03F00F03002B02D0FB8D0133C2
:104B1000FB85FB8D002B06D13E2387F828303E23F2
:104B200087F829301BE097F82D309BB2FA8D9A4216
:104B300006D83E2387F828303E2387F829300EE038
:104B400097F82D30194625200BF070FA094B1B6899
:104B500097F82D2092B211461846FEF779FF07F11B
:104B6000280202232121F868FFF73CFB00BF303701
:104B7000BD4680BD1C00002080B586B000AFF86047
:104B8000B9601346FB7106F059F978617B691B0E19
:104B9000DBB23B747B691B0CDBB27B747B691B0A49
:104BA000DBB2BB747B69DBB2FB7407F11002042338
:104BB0002321F868FFF716FB00BF1837BD4680BDFC
:104BC00080B586B000AFF860B9601346FB714FF650
:104BD0003F73BB8204F0B6FE07F1140202232521C5
:104BE000F868FFF7FFFA00BF1837BD4680BD80B5F3
:104BF00086B000AFF860B9601346FB7106F01EF98D
:104C000078617B691B0EDBB23B747B691B0CDBB2EA
:104C10007B747B691B0ADBB2BB747B69DBB2FB7400
:104C200007F1100204232721F868FFF7DBFA00BF21
:104C30001837BD4680BD000080B586B000AFF86073
:104C4000B9601346FB714FF63F733B82BB681B781C
:104C5000FB75BB6801331B78BB82B7F91430642B3A
:104C600003DC97F91730012B04DD3E233B743E2310
:104C70007B7408E0094B1B6897F91710B7F91420EB
:104C80001846FEF723FD07F1100202232921F868D8
:104C9000FFF7A8FA00BF1837BD4680BD1C000020F2
:104CA00080B586B000AFF860B9601346FB714FF66F
:104CB0003F73BB82BB681B78FB75BB6801331B78F5
:104CC000BB75FB7D002B05D1BB7D242B08D8BB7D9C
:104CD000002B05D0FB7D012B07D1BB7D002B04D120
:104CE0003E233B753E237B7511E0FB7D002B07D1F6
:104CF0000C4B1B68BA7D11461846FEF712FD06E004
:104D0000FB7D012B03D1BB7D184604F0C7FC07F1E6
:104D1000140202232B21F868FFF764FA00BF18374A
:104D2000BD4680BD1C00002080B586B000AFF86095
:104D3000B9601346FB71FF233B75BB681B78FB759D
:104D400007F1140201232D21F868FFF74BFAFB7DD0
:104D5000002B05D1084B1B681846FEF705FD07E040
:104D6000FB7D012B04D1044B1B681846FEF73AFD6E
:104D700000BF1837BD4680BD1C00002080B588B03C
:104D800000AFF860B9601346FB7104F01DFD0346E7
:104D9000FB8304F041FD0346BB833F233B75FB8B44
:104DA0001B0A9BB2DBB27B75FB8BDBB2BB75BB8B8B
:104DB0001B0A9BB2DBB2FB75BB8BDBB23B7607F108
:104DC000140205233321F868FFF70CFA00BF2037DF
:104DD000BD4680BD80B586B000AFF860B9601346AF
:104DE000FB71FF233B750BF03DFA07F11402012321
:104DF0003521F868FFF7F6F900BF1837BD4680BDCA
:104E000080B400AF024B1846BD465DF8047B704786
:104E10003888030880B400AF18231846BD465DF8F3
:104E2000047B704780B582B000AF786039607B68E2
:104E3000183318460BF022FB00BF0837BD4680BD73
:104E400080B584B000AF786039607B685B69FB60D7
:104E50007B685B693968786898470346FB72FB7A20
:104E6000002B08D1FB680649786898477B685B6926
:104E700004497868984700BF1037BD4680BD00BF21
:104E80001C8903080889030880B584B002AF7860E4
:104E900039607B68002B03D10021134804F014F81B
:104EA00078683B685A683B689B68009313460F4AD2
:104EB0000F490BF041FA7B6818337A6817211846BE
:104EC0000BF09AFA3B681A687B685A617B6800228B
:104ED00083F828207B68183318460BF0CFFA00BF00
:104EE0000837BD4680BD00BFF8880308414E020860
:104EF000254E020880B586B002AF1223009302232C
:104F00002422094909480AF0FDFD094A3B1D07CA48
:104F100083E807003B1D19460648FFF7B5FF00BFB1
:104F20001037BD4680BD00BF34CC002058CC0020D7
:104F3000E4620308F4CB002080B582B000AF0346E2
:104F4000FB71FB79194603480BF010FA00BF0837D4
:104F5000BD4680BDF4CB002080B582B000AF786044
:104F600039603B681B88012B02D0172B02D01BE055
:104F700001231AE07B6893F82830002B09D10D4BF0
:104F80001B68184603F0DFFA7B68012283F82820AB
:104F900008E0084B1B68184603F064FB7B6800229E
:104FA00083F82820012300E0022318460837BD4675
:104FB00080BD00BF2400002080B500AF0C4B1B68F3
:104FC000184603F0C0FA0346002B01D001230CE081
:104FD000084B1B88074A1288194607480BF02EFA1F
:104FE000064B012283F828200023184680BD00BF0D
:104FF00024000020280000200CCC0020F4CB00204E
:1050000080B500AF07480BF039FA074B1B6818460C
:1050100003F028FB054B002283F8282000231846C4
:1050200080BD00BF0CCC002024000020F4CB002069
:1050300080B483B000AF0346FB80044AFB88138032
:1050400000BF0C37BD465DF8047B70472800002088
:1050500080B400AFBFF34F8F00BF064BDB6803F493
:10506000E0620449044B1343CB60BFF34F8F00BF92
:1050700000BFFDE700ED00E00400FA0580B584B054
:1050800000AFF860B9607A6004F0DEFC00BF103752
:10509000BD4680BD80B5ADF5826D00AF07F582637A
:1050A000A3F20443186007F58263A3F581631960D6
:1050B00007F58263A3F20C431A6007F58263A3F538
:1050C000806318464FF480631A4600210FF030F9D0
:1050D00007F110031A464FF48061002005F0EEFB43
:1050E00007F58263A3F204430849186809F0BAFC83
:1050F00007F58263A3F204430549186809F0B2FC7E
:1051000000BF07F58267BD4680BD00BFF06203089F
:105110000063030880B5ADF5836D00AF07F58363C9
:10512000A3F20C43186007F58363A3F5826319604B
:1051300007F58363A3F214431A6007F114031A46B8
:105140004FF48061002005F0CBFB07F58363A3F2E9
:105150000C431F49186809F085FC0023C7F8143474
:1051600024E007F58363A3F20442D7F81434134410
:105170001B781A4607F58363A3F20C431549186898
:1051800009F070FCD7F81434013303F00F03002B3F
:1051900007D107F58363A3F20C430F49186809F0A0
:1051A00061FCD7F814340133C7F81434D7F8143439
:1051B000B3F5806FD5DB07F58363A3F20C43064993
:1051C000186809F04FFC00BF07F58367BD4680BD36
:1051D000046303081C6303082463030880B588B0D4
:1051E00000AFF860B9607A6007F11403074A0A213A
:1051F00018460EF017FF07F114031946F86808F077
:10520000BAF900BF2037BD4680BD00BF5C6D030802
:1052100080B584B000AFF860B9607A60FFF718FF1E
:1052200080B588B000AFF860B9607A600023BB61D8
:105230000023FB82B86808F08FFA03467B757B7DFC
:10524000012B04D02E49F86809F00CFC54E0012130
:10525000B86808F04BFA38613B691B78612B22D1A2
:105260000023FB771BE0FB7F184604F02BFC034672
:10527000FB82B7F9163013F5004F06D1FB7F1A46B3
:105280002049F86809F0EEFB06E0FA7FB7F916301E
:105290001D49F86809F0E6FBFB7F0133FB77FB7FD4
:1052A000072BE0D928E03B691B782F2B20D93B69DD
:1052B0001B78372B1CD838690EF0DAF80346BB612F
:1052C000B86904F0FFFB0346FB82B7F9163013F50B
:1052D000004F05D1BA690B49F86809F0C3FB0BE030
:1052E000B7F91630BA690849F86809F0BBFB03E062
:1052F0000649F86809F0B6FB2037BD4680BD00BFFF
:10530000646D0308846D0308986D0308AC6D030891
:1053100080B588B000AFF860B9607A60B86808F00E
:105320001BFA0346FB61FB69012B04D01549F868A1
:1053300009F098FB23E0144B1B68184603F0D2F9E0
:10534000034683F00103DBB2002B04D00F49F86859
:1053500009F088FB13E00121B86808F0C7F9B861CB
:10536000B8690EF085F803467B61074B1B687969C5
:10537000184602F0FDFD0649F86809F073FB203776
:10538000BD4680BD646D03082C000020C06D03087D
:105390000C6E030880B584B000AFF860B9607A6025
:1053A0000A4B1B68184602F0FCFD0346002B04D094
:1053B0000749F86809F056FB03E00649F86809F068
:1053C00051FB00BF1037BD4680BD00BF2C00002040
:1053D0000C6E0308146E030880B588B000AFF86047
:1053E000B9607A60B86808F0B7F90346BB61BB6979
:1053F000012B04D03849F86809F034FB69E0374BD9
:105400001B68184603F06EF9034683F00103DBB214
:10541000002B04D03249F86809F024FB59E001213F
:10542000B86808F063F9786100233B617B691B78F9
:10543000612B25D10023FB611EE0284B1B68F96915
:10544000184602F0F4FD38613B69002B0CD1234B68
:105450001B680022F969184603F0D8F9FA69214956
:10546000F86809F0FFFA04E0FA691F49F86809F0E2
:10547000F9FAFB690133FB61FB69032BDDD928E0F5
:105480007B691B782F2B24D97B691B78332B20D881
:1054900078690DF0EDFF0346FB61104B1B68F9695D
:1054A000184602F0C4FD38613B69002B0CD10B4B50
:1054B0001B680022F969184603F0A8F9FA6909493E
:1054C000F86809F0CFFA04E0FA690749F86809F0CA
:1054D000C9FA2037BD4680BD646D03082C0000204A
:1054E0001C6E0308646E0308786E030880B588B0EC
:1054F00000AFF860B9607A60B86808F02DF903462B
:10550000FB61FB69012B04D01549F86809F0AAFA80
:1055100022E00121B86808F0E9F8B861B8690DF037
:10552000A7FF0346FB82FB8AB3F5FA7F04D3FB8A0D
:1055300040F6B832934204D90A49F86809F092FA61
:105540000AE0094B1B68FA8A1146184603F082F9F3
:105550000649F86809F086FA2037BD4680BD00BFCD
:10556000906E0308B86E03082C0000200C6E030830
:1055700080B586B000AFF860B9607A60084B1B68F0
:10558000184603F083F90346FB82FB8A1A46054955
:10559000F86809F067FA00BF1837BD4680BD00BF44
:1055A0002C000020EC6E030880B588B000AFF860D6
:1055B000B9607A60B86808F0CFF80346BB61BB6990
:1055C000042B04D03149F86809F04CFA5BE0304B09
:1055D0001B68184603F06CF80346FB750023FB615B
:1055E0004AE0FB699BB201339BB21946B86808F0E8
:1055F0007DF8034618460DF03BFF0346D9B207F18C
:105600001002FB6913440A461A7007F11002FB6985
:1056100013441B78012B05D9FA691E49F86809F073
:1056200021FA30E007F11002FB6913441B78002BCC
:1056300008D1174B1B68FA69D2B21146184602F01E
:1056400075FD16E0FB7DFA699A4205D1FA691249A7
:10565000F86809F007FA0CE00D4B1B68FA69D2B242
:105660001146184602F041FDFA690C49F86809F044
:10567000F9F9FB690133FB61FB69032BB1D90849D7
:10568000F86809F0EFF92037BD4680BD106F0308B8
:105690002C000020346F03085C6F0308806F030840
:1056A0000C6E030880B586B000AFF860B9607A6010
:1056B000134B1B68184602F05CFD0346FB74002385
:1056C0007B6115E0FA7C7B6942FA03F303F0010386
:1056D000002B05D07A690B49F86809F0C3F904E09A
:1056E0007A690949F86809F0BDF97B6901337B6182
:1056F0007B69032BE6D900BF00BF1837BD4680BDCC
:105700002C000020806F0308986F030880B58CB0D0
:1057100000AFF860B9607A60354B1B68184602F03C
:10572000E1FF034683F00103DBB2002B04D03149D3
:10573000F86809F097F958E0B86808F00DF80346E2
:10574000FB62FB6A032B04D02B49F86809F08AF945
:105750004BE00121B86807F0C9FFB862B86A0DF0E4
:1057600087FE03467B627B6A032B04D92349F868D2
:1057700009F078F939E00221B86807F0B7FF38621C
:10578000386A0DF075FE0346FB61FB69012B04D9F5
:105790001B49F86809F066F927E00321B86807F0AB
:1057A000A5FFB861B8690DF063FE0346FB82FB8A72
:1057B00040F6B832934204D91249F86809F052F918
:1057C00013E00B4B1868FB8AFA69796A02F09EFFB6
:1057D00038613B69002B04D00B49F86809F042F9A5
:1057E00003E00A49F86809F03DF93037BD4680BD4D
:1057F0002C000020B06F0308D46F0308007003086A
:105800002470030848700308146E03080C6E030824
:1058100080B58AB000AFF860B9607A602A4B1B6827
:10582000184602F05FFF034683F00103DBB2002B52
:1058300004D02649F86809F015F941E0B86807F086
:105840008BFF03467B627B6A022B04D02049F868F9
:1058500009F008F934E00121B86807F047FF386221
:10586000386A0DF005FE0346FB61FB69032B04D982
:105870001849F86809F0F6F822E00221B86807F044
:1058800035FFB861B8690DF0F3FD03467B610E4B3F
:1058900018687B69002B14BF01230023DBB21A4672
:1058A000F96902F0B3FF38613B69002B04D00A4963
:1058B000F86809F0D7F803E00849F86809F0D2F869
:1058C0002837BD4680BD00BF2C000020B06F030804
:1058D0007470030800700308146E03080C6E03084C
:1058E00080B58CB000AFF860B9607A60B86807F036
:1058F00033FF0346BB62BB6A032B04D04149F868FF
:1059000009F0B0F87AE00121B86807F0EFFE78629C
:10591000786A0DF0ADFD03467B847B8C4EF66022E9
:10592000934204D93849F86809F09CF866E00221EE
:10593000B86807F0DBFEF861344B1B68184602F0CC
:1059400018FC0346FB76FB691B786F2B07D10423F9
:1059500087F82F302E49F86809F084F81EE0FB69BB
:105960001B782F2B1AD9FB691B78332B16D8F869B3
:105970000DF07EFD034687F82F30FA7E97F82F3022
:1059800042FA03F303F00103002B07D097F82F30FE
:105990001A462049F86809F065F82FE00321B86835
:1059A00007F0A4FE786178690DF062FD03463B6163
:1059B0003B69B3F5FA7F04D33B6940F6B8329342B2
:1059C00004D91549F86809F04DF817E07B8C1846A2
:1059D000FFF72EFB0D4B1B6897F82F20114618463A
:1059E00002F07CFD094B1B683A6992B211461846D9
:1059F00002F08DFD0949F86809F034F83037BD46EA
:105A000080BD00BF94700308C87003082C000020FC
:105A1000F870030810710308B86E03080C6E0308D1
:105A200080B584B000AFF860B9607A60FFF7C4FA5F
:105A30000349F86809F016F800BF1037BD4680BD6D
:105A40000C6E030880B584B000AFF860B9607A606E
:105A5000FFF7D6FA0349F86809F004F800BF1037D9
:105A6000BD4680BD0C6E030880B586B000AFF860FF
:105A7000B9607A600F4B1B68184602F019FE0346A6
:105A8000FB750C4B1B68184602F01FFE0346BB82D9
:105A9000FB7D042B04D10849F86808F0E3FF05E01A
:105AA000FA7DBB8A0549F86808F0DCFF1837BD4667
:105AB00080BD00BF2C000020F8700308347103087B
:105AC00080B588B000AFF860B9607A60B86807F058
:105AD00043FE0346FB61FB69012B04D01249F868C1
