:020000040802F0
:1000000000000820112E0208CD2B0208D52B020873
:10001000DD2B0208E52B0208ED2B02080000000092
:10002000000000000000000000000000F52B0208A6
:10003000032C020800000000112C02081F2C0208EB
:10004000612E0208612E0208612E0208612E02084C
:10005000612E0208612E0208612E0208612E02083C
:10006000612E0208612E0208612E0208612E02082C
:10007000612E0208612E0208612E0208612E02081C
:10008000612E0208612E0208612E0208612E02080C
:10009000612E0208612E0208612E0208612E0208FC
:1000A000612E020879800208612E0208612E020882
:1000B00031810208612E0208612E0208612E0208B9
:1000C000612E0208612E0208612E0208612E0208CC
:1000D000612E0208612E0208612E0208612E0208BC
:1000E000612E0208612E0208612E0208612E0208AC
:1000F000612E0208612E0208612E0208612E02089C
:10010000612E0208612E0208612E0208612E02088B
:10011000612E0208612E0208612E0208612E02087B
:100120003B2C0208612E0208472C0208A98702080E
:10013000532C0208612E0208612E0208612E02086B
:10014000612E0208612E0208612E0208612E02084B
:10015000612E0208F9820208612E02084D4E020843
:10016000612E0208612E0208612E0208612E02082B
:10017000612E0208612E0208612E020800000000B4
:10018000612E0208612E0208653F0208612E0208F6
:10019000612E0208612E0208612E0208612E0208FB
:1001A0000000000000000000612E0208612E02081D
:1001B000612E0208612E0208612E0208612E0208DB
:1001C000612E0208612E020800000000612E020864
:1001D000612E0208612E0208612E0208612E0208BB
:1001E000612E0208612E0208612E0208612E0208AB
:0801F00000000000612E02086E
:1002000010B5054C237833B9044B13B10448AFF350
:1002100000800123237010BDE44300200000000093
:10022000981B030808B5034B1BB103490348AFF300
:10023000008008BD00000000E8430020981B030870
:1002400001F0FF01102A2BDB10F0070F08D010F887
:10025000013B013A8B422DD010F0070F42B3F6D18B
:10026000F0B441EA012141EA014122F007047FF0A4
:1002700000070023F0E80256083C85EA010586EAFB
:10028000010685FA47F5A3FA87F586FA47F6A5FA37
:1002900087F68EB9EED1F0BC01F0FF0102F0070243
:1002A00032B110F8013B013A83EA010313B1F8D1EE
:1002B0000020704701387047002D06BF35460338CF
:1002C000073815F0010F07D1013015F4807F02BF08
:1002D000013015F4C03F0130F0BC0138704700BF59
:1002E000034613F8012B002AFBD1181A0138704776
:1002F0007BB972B90029BEBF00204FF0004106E073
:1003000008BF00281CBF6FF000414FF0FF3000F025
:10031000D3B9ADF1080C6DE904CE002909DB002B3F
:100320001ADB00F04DF8DDF804E0DDE9022304B04B
:100330007047404261EB4101002B1BDB00F040F8AD
:10034000DDF804E0DDE9022304B0404261EB410145
:10035000524263EB43037047524263EB430300F0A6
:100360002FF8DDF804E0DDE9022304B0404261EB40
:1003700041017047524263EB430300F021F8DDF87E
:1003800004E0DDE9022304B0524263EB430370470B
:1003900053B94AB9002908BF00281CBF4FF0FF31EC
:1003A0004FF0FF3000F088B9ADF1080C6DE904CED4
:1003B00000F006F8DDF804E0DDE9022304B0704740
:1003C0002DE9F047089D8E4604468846002B4AD109
:1003D0008A42174662D9B2FA82F64EB1C6F12003BC
:1003E00001FA06F820FA03F3B74043EA0808B440DC
:1003F0004FEA174E1FFA87FCB8FBFEF1230C0EFBE9
:10040000118843EA084301FB0CF29A4209D9FB1810
:1004100001F1FF3080F0EA809A4240F2E780023931
:100420003B449A1AA3B2B2FBFEF00EFB102243EA41
:10043000024300FB0CFC9C4509D9FB1800F1FF327C
:1004400080F0D6809C4540F2D3803B44023840EA9D
:100450000140A3EB0C0300211DB1F3400022C5E9CC
:100460000032BDE8F0878B4205D90DB1C5E9000126
:1004700000210846F5E7B3FA83F1002946D1734518
:1004800002D3824200F20581841A6EEB030201203E
:100490009046002DE5D0C5E90048E2E7002A00F0CB
:1004A0009080B2FA82F6002E40F0A4808A1A030CE3
:1004B0004FEA174E80B2BCB20121B2FBFEFC0EFB2C
:1004C0001C2243EA024304FB0CF29A4207D9FB18B0
:1004D0000CF1FF3802D29A4200F2E080C4469B1A27
:1004E000B3FBFEF20EFB123340EA034302FB04F4BB
:1004F0009C4207D9FB1802F1FF3002D29C4200F265
:10050000CA8002461B1B42EA0C40A5E7C1F1200647
:100510008B4022FA06F71F430EFA01F420FA06F385
:100520002EFA06FE4FEA1749234300FA01F81FFA94
:1005300087FCBEFBF9F01C0C09FB10EE44EA0E44EC
:1005400000FB0CFEA64502FA01F209D93C1900F1A4
:10055000FF3A80F09C80A64540F2998002383C44E6
:10056000A4EB0E041FFA83FEB4FBF9F309FB13445A
:100570004EEA044403FB0CFCA44508D93C1903F1E2
:10058000FF3E80F08280A4457FD9023B3C4443EA91
:100590000040A4EB0C04A0FB02EC64457346E1466A
:1005A00062D35FD05DB1B8EB030264EB090404FAD7
:1005B00006F622FA01F31E43CC40C5E9006400218F
:1005C0004FE7B1FBF2FC010C41EA0E4180B240EA78
:1005D00001423B4638463C46B846BE462026B1FB63
:1005E000F7F1A2EB080241EA0C4166E7014618E781
:1005F00010462CE7C6F120022EFA02F3B740B140B4
:1006000020FA02F24FEA174E0A43B3FBFEF8BCB2DF
:100610000EFB1833110C41EA034108FB04F9B0400A
:1006200089454FEA104380B23ED9791808F1FF3C62
:1006300001D289451FD8A1EB0901B1FBFEF909FBE5
:1006400004F80EFB191192B242EA0142424529D246
:10065000BA1809F1FF31C4D24245C2D2A9F1020150
:100660003A44BEE7F0459DD2BEEB02036CEB070CAB
:100670000138E14696E7A7EB09094944A8F1020CC5
:10068000B1FBFEF909FB04F8DBE773467FE7504650
:1006900066E70846FDE63B44023A33E7ACF1020C5C
:1006A0003B441CE749469CE7A1EB0901C446B1FB6A
:1006B000FEF909FB04F8C4E7704700BF80B400AF3F
:1006C000044BDB681B0A03F007031846BD465DF8C0
:1006D000047B704700ED00E080B483B000AF0346B8
:1006E000FB7197F90730002B0BDBFB7903F01F023E
:1006F000074997F907305B09012000FA02F241F837
:10070000232000BF0C37BD465DF8047B704700BF57
:1007100000E100E080B483B000AF03463960FB71B4
:1007200097F90730002B0ADB3B68DAB20C4997F9DE
:1007300007301201D2B20B4483F800230AE03B6871
:10074000DAB20849FB7903F00F03043B1201D2B27D
:100750000B441A7600BF0C37BD465DF8047B70472A
:1007600000E100E000ED00E080B489B000AFF86087
:10077000B9607A60FB6803F00703FB61FB69C3F1B2
:100780000703042B28BF0423BB61FB690433062B3A
:1007900002D9FB69033B00E000237B614FF0FF328D
:1007A000BB6902FA03F3DA43BB681A407B699A40DB
:1007B0004FF0FF317B6901FA03F3D9437B680B40AB
:1007C000134318462437BD465DF8047B704780B458
:1007D00089B000AFF860B9607A60FB682C331946C5
:1007E000BB6803F440734FF44072BA61BA6992FA7D
:1007F000A2F27A617A69B2FA82F2D2B2D3409B0055
:100800000B44FB61FB691A68BB6803F01F031F21DF
:1008100001FA03F3DB431A407B6803F01F01BB6856
:1008200003F01F0301FA03F31A43FB691A6000BFC8
:100830002437BD465DF8047B704780B483B000AFB9
:10084000786039607B689B6823F480623B681A4358
:100850007B689A6000BF0C37BD465DF8047B70472B
:1008600080B48DB000AFF860B9607A60FB680C337B
:100870001946BB6803F000734FF00072BA61BA69A1
:1008800092FAA2F27A617A69B2FA82F2D2B2D340D3
:100890009B000B44FB62FB6A1A68BB6803F0F873A9
:1008A0004FF0F8713962396A91FAA1F1F961F96989
:1008B000B1FA81F1C9B2CB40072101FA03F3DB435E
:1008C0001A40BB6803F0F8734FF0F871B962B96A67
:1008D00091FAA1F17962796AB1FA81F1C9B2CB409A
:1008E000796801FA03F31A43FB6A1A6000BF3437D0
:1008F000BD465DF8047B704780B485B000AFF860FA
:10090000B9607A600D4ABB6813441B781A46FB68CD
:1009100013441B6823F0C0020849BB680B441B78D2
:100920001946FB680B4419467B6813430B6000BFF4
:100930001437BD465DF8047B704700BFF0270308FD
:1009400080B485B000AFF860B9607A600D4ABB68CA
:1009500013441B781A46FB6813441B6823F49072F7
:100960000849BB680B441B781946FB680B441946C1
:100970007B6813430B6000BF1437BD465DF8047BF2
:10098000704700BFF027030880B485B000AFF8605F
:10099000B9607A600D4ABB6813441B781A46FB683D
:1009A00013441B6823F400720849BB680B441B788E
:1009B0001946FB680B4419467B6813430B6000BF64
:1009C0001437BD465DF8047B704700BFF02703086D
:1009D00080B485B000AFF860B9607A600D4ABB683A
:1009E00013441B781A46FB6813441B6823F4806287
:1009F0000849BB680B441B781946FB680B44194631
:100A00007B6813430B6000BF1437BD465DF8047B61
:100A1000704700BFF027030880B485B000AFF860CE
:100A2000B9607A600D4ABB6813441B781A46FB68AC
:100A300013441B6823F4C0520849BB680B441B785D
:100A40001946FB680B4419467B6813430B6000BFD3
:100A50001437BD465DF8047B704700BFF0270308DC
:100A600080B485B000AFF860B9607A600D4ABB68A9
:100A700013441B781A46FB6813441B6823F4C042D6
:100A80000849BB680B441B781946FB680B441946A0
:100A90007B6813430B6000BF1437BD465DF8047BD1
:100AA000704700BFF027030880B485B000AFF8603E
:100AB000B9607A600D4ABB6813441B781A46FB681C
:100AC00013441B6823F440320849BB680B441B786D
:100AD0001946FB680B4419467B6813430B6000BF43
:100AE0001437BD465DF8047B704700BFF02703084C
:100AF00080B485B000AFF860B9607A600D4ABB6819
:100B000013441B781A46FB6813441B6823F0F05209
:100B10000849BB680B441B781946FB680B4419460F
:100B20007B6813430B6000BF1437BD465DF8047B40
:100B3000704700BFF027030880B483B000AF78602F
:100B400039600C4A3B6813441B781A467B6813448F
:100B50005B6908493A680A44127811467A680A447F
:100B600023F00403536100BF0C37BD465DF8047BDE
:100B7000704700BFF027030880B483B000AF7860EF
:100B80007B681B6843F001027B681A6000BF0C376A
:100B9000BD465DF8047B704780B483B000AF7860D9
:100BA0007B681B6823F400327B681A6000BF0C3737
:100BB000BD465DF8047B704780B483B000AF7860B9
:100BC0007B681B6823F400227B681A6000BF0C3727
:100BD000BD465DF8047B704780B485B000AFF86017
:100BE000B9607A60FB68DA68064B1340B9687A68C6
:100BF0000A431A43FB68DA6000BF1437BD465DF84C
:100C0000047B704701F8FFFF80B483B000AF7860C9
:100C10007B68DB6823F400427B68DA6000BF0C3736
:100C2000BD465DF8047B704780B483B000AF786048
:100C30007B685B6843F000727B685A6000BF0C37CA
:100C4000BD465DF8047B704780B483B000AF786028
:100C50007B684CF6CC421A6000BF0C37BD465DF88D
:100C6000047B704780B483B000AF78607B6845F246
:100C700055521A6000BF0C37BD465DF8047B7047C3
:100C800080B483B000AF786039603B6803F007023E
:100C90007B685A6000BF0C37BD465DF8047B704727
:100CA00080B483B000AF786039603B68C3F30B0257
:100CB0007B689A6000BF0C37BD465DF8047B7047C7
:100CC00080B483B000AF786039603B68C3F30B0237
:100CD0007B681A6100BF0C37BD465DF8047B704726
:100CE00080B483B000AF78607B68DB6803F00703F3
:100CF000002B01D1012300E0002318460C37BD462C
:100D00005DF8047B704780B483B000AF78607B6887
:100D10001B6843F040027B681A6000BF0C37BD4679
:100D20005DF8047B704780B483B000AF78603960B1
:100D30007B685B6823F010023B681A437B685A604B
:100D400000BF0C37BD465DF8047B704780B483B0AC
:100D500000AF78607B685B6843F008027B685A608C
:100D600000BF0C37BD465DF8047B704780B483B08C
:100D700000AF78607B685B6823F008027B685A608C
:100D800000BF0C37BD465DF8047B704780B483B06C
:100D900000AF78607B681B6843F080027B681A6054
:100DA00000BF0C37BD465DF8047B704780B483B04C
:100DB00000AF78607B681B6823F080027B681A6054
:100DC00000BF0C37BD465DF8047B704780B485B02A
:100DD00000AF786039603B68012B28D03B68042B5A
:100DE00023D03B68102B1ED03B68402B19D03B68AA
:100DF000B3F5807F13D03B68B3F5806F0DD03B68AF
:100E0000B3F5805F07D03B68B3F5803F01D107237E
:100E10000EE008230CE006230AE0052308E0042383
:100E200006E0032304E0022302E0012300E00023A4
:100E3000FB737B6818331946FB7B0B4AD35C0B446E
:100E4000BB60BB681A68FB7B0849CB5C194604236E
:100E50008B40DB431A40BB681A6000BF1437BD46A5
:100E60005DF8047B704700BFF827030804280308D7
:100E700080B485B000AF786039603B68012B28D022
:100E80003B68042B23D03B68102B1ED03B68402BC3
:100E900019D03B68B3F5807F13D03B68B3F5806F02
:100EA0000DD03B68B3F5805F07D03B68B3F5803F5A
:100EB00001D107230EE008230CE006230AE00523F6
:100EC00008E0042306E0032304E0022302E00123F8
:100ED00000E00023FB737B6818331946FB7B0A4A4A
:100EE000D35C0B44BB60BB681A68FB7B0749CB5CD7
:100EF000194608238B401A43BB681A6000BF143799
:100F0000BD465DF8047B7047F827030804280308F2
:100F100080B483B000AF786039607B689A68064B14
:100F200013403A681A437B689A6000BF0C37BD468D
:100F30005DF8047B704700BFF8BFFEFF80B483B04C
:100F400000AF786039607B685B6823F070023B68B3
:100F50001A437B685A6000BF0C37BD465DF8047BBE
:100F6000704780B483B000AF786039607B685B689D
:100F700023F470023B681A437B685A6000BF0C3749
:100F8000BD465DF8047B704780B483B000AF7860E5
:100F90007B689B6823F080027B689A6000BF0C37F7
:100FA000BD465DF8047B704780B483B000AF7860C5
:100FB0007B681B6843F001027B681A6000BF0C3736
:100FC000BD465DF8047B704780B483B000AF7860A5
:100FD00039607B681B6823F4F8123B681B041A43D2
:100FE0007B681A6000BF0C37BD465DF8047B704714
:100FF00080B483B000AF786039607B681B6823F0F1
:1010000078723B685B051A437B681A6000BF0C3737
:10101000BD465DF8047B704780B483B000AF786054
:101020007B689B6843F480427B689A6000BF0C3702
:10103000BD465DF8047B704780B483B000AF786034
:1010400039607B689B6823F400423B681A437B68E5
:101050009A6000BF0C37BD465DF8047B704780B4D2
:1010600083B000AF78607B685B6823F490427B6854
:101070005A607B689B6823F02A027B689A6000BFF5
:101080000C37BD465DF8047B704780B483B000AF79
:10109000786039607B683A689A6100BF0C37BD465A
:1010A0005DF8047B704780B483B000AF786039602E
:1010B0003B681A047B689A6100BF0C37BD465DF837
:1010C000047B704780B485B000AF7860084B1A6B22
:1010D00007497B6813430B63054B1A6B7B6813400E
:1010E000FB60FB6800BF1437BD465DF8047B7047AA
:1010F0000038024080B485B000AF7860084B1A6CAD
:1011000007497B6813430B64054B1A6C7B681340DB
:10111000FB60FB6800BF1437BD465DF8047B704779
:101120000038024080B485B000AF7860084B5A6C3C
:1011300007497B6813434B64054B5A6C7B6813402B
:10114000FB60FB6800BF1437BD465DF8047B704749
:101150000038024080B500AF00F080FB00BF80BDCA
:1011600080B500AF0BF0AEF900F02AF801F0D0F92D
:1011700001F066F900F0B6FA00F070FB00F024FC14
:1011800000F0A0FC00F088F800F01AFD00F02EFF3F
:1011900001F006F800F0C6FD01F09EF800F0D0F96D
:1011A00000F09CFE00F0E0FE00F036FB00F078FA64
:1011B00001F057FE01F067FE01F07EFE00BFFDE783
:1011C00080B594B000AF07F11C033422002118460B
:1011D0000EF0C2FE07F1080300221A605A609A60FE
:1011E000DA601A612A4B1B6C294A43F0805313645E
:1011F000274B1B6C03F080537B607B68254B1B687F
:1012000023F44043234A43F400431360214B1B68FB
:1012100003F440433B603B680923FB614FF4803398
:101220003B6201233B6302237B634FF48003BB6378
:101230000F23FB63C0233B6402237B640223BB6454
:101240000223FB6407F11C0318460BF01DFC034648
:10125000002B01D001F070FC0F23BB600223FB6068
:1012600000233B614FF4A0537B614FF48053BB617B
:1012700007F10803052118460BF0B4FE0346002BC6
:1012800001D001F059FC00BF5037BD4680BD00BF02
:10129000003802400070004080B592B000AF07F106
:1012A0003C0300221A605A609A6007F1280300226A
:1012B0001A605A609A60DA601A6107F11803002216
:1012C0001A605A609A60DA603B4600221A605A60DF
:1012D0009A60DA601A615A614FF48070FFF722FF5A
:1012E0000420FFF7EFFE0220FFF7ECFE01233B6036
:1012F00003237B6000233B613B46194684480CF086
:10130000FAFD02233B6003237B6000233B613B46E5
:1013100019467F480CF0EFFD04233B6003237B60FC
:1013200000233B613B46194679480CF0E4FD082355
:101330003B6003237B6000233B613B4619467448B6
:101340000CF0D9FD10233B6003237B6000233B613D
:101350003B4619466E480CF0CEFD20233B6003232C
:101360007B6000233B613B46194669480CF0C3FD96
:1013700001233B6003237B6000233B613B4619460E
:1013800064480CF0B8FD02233B6003237B6000231C
:101390003B613B4619465F480CF0ADFD002204213D
:1013A0005D48FFF7A5FB002204215B48FFF7A4FA84
:1013B000002204215848FFF777FB4FF48072042184
:1013C0005548FFF7BDFA002204215348FFF7DCFA25
:1013D0004FF4806204215048FFF7FAFA4FF400629C
:1013E00004214D48FFF718FB4FF4005204214A48EE
:1013F000FFF736FB04214848FFF79EFB0023FB6301
:1014000000233B644FF480737B6407F13C0319466F
:1014100042480CF0F7FB0023BB624FF4E003FB6291
:1014200000233B6300237B634FF44073BB6307F1EE
:101430002803194639480CF011FC00213748FFF702
:10144000FCF94FF48033BB610023FB6107F1180303
:10145000194633480CF08EFB0A224FF400712F48D6
:10146000FFF7B5F901220A212C48FFF7F9F92D4AB7
:1014700040F205212948FFF7AAF901222949274806
:10148000FFF7EEF9284A40F20A212448FFF79FF9B6
:10149000012225492148FFF7E3F9244A40F20F21B0
:1014A0001E48FFF794F9012220491C48FFF7D8F99C
:1014B0001F4A4FF405711948FFF789F901221C49A9
:1014C0001648FFF7CDF91B4A40F219211348FFF7E0
:1014D0007EF9012217491148FFF7C2F9164A4FF465
:1014E00080710E48FFF773F9012213490B48FFF78B
:1014F000B7F9124A40F205110848FFF768F90122CE
:101500000E490648FFF7ACF900BF4837BD4680BD1D
:101510000008024000040240006402400020014034
:10152000002301400B0030000C0060000D00900013
:101530000E00C0000F00F000080080030900B00397
:1015400080B58EB000AF07F12C0300221A605A60FC
:101550009A6007F1180300221A605A609A60DA60F4
:101560001A613B4600221A605A609A60DA601A617A
:101570005A614FF40070FFF7D5FD0120FFF7A2FD7F
:1015800004233B6003237B6000233B613B461946F9
:101590003E480CF0B0FC08233B6003237B60002333
:1015A0003B613B46194639480CF0A5FC4FF00072F0
:1015B00002213748FFF79CFA002202213448FFF746
:1015C0009BF9002202213248FFF76EFA4FF4807235
:1015D00002212F48FFF7B4F9002202212C48FFF71F
:1015E000D3F94FF4806202212948FFF7F1F94FF453
:1015F000006202212648FFF70FFA4FF40052022141
:101600002348FFF72DFA02212148FFF795FA00231E
:10161000FB6200233B634FF480737B6307F12C0371
:1016200019461C480CF0EEFA0023BB614FF48013FE
:10163000FB6100233B6200237B624FF44073BB627B
:1016400007F11803194613480CF008FB4FF48061AA
:101650001048FFF7F2F8104A4FF400710D48FFF7F9
:10166000B6F801220C490B48FFF7FAF80B4A40F292
:1016700005210848FFF7ABF8002208490548FFF7A5
:10168000EFF800BF3837BD4680BD00BF0000024004
:101690000064024000210140030090020200600249
:1016A00080B500AF0D4B0E4A1A600C4B00221A7128
:1016B0000A4B00225A71094B00225A61074B002243
:1016C0009A61064B01221A6204480BF073F8034634
:1016D000002B01D001F030FA00BF80BD0044002093
:1016E0000030024080B5B2B000AF07F1AC03002279
:1016F0001A605A609A60DA601A615A619A6107F159
:10170000940300221A605A609A60DA601A615A6182
:101710003B1D9022002118460EF01EFC4FF4804322
:101720007B600023BB663B1D18460BF00DFE034695
:10173000002B01D001F000FA0220FFF7C3FC402388
:10174000C7F894300223C7F898300323C7F89C30B9
:101750000123C7F8A0300023C7F8A4300423C7F83A
:10176000A83007F19403194628480CF0C4FB8023E5
:10177000C7F894300223C7F898300323C7F89C3089
:101780000123C7F8A0300023C7F8A4300423C7F80A
:10179000A83007F1940319461C480CF0ACFB4FF439
:1017A0000010FFF7A7FC1A48FFF73EFA00220021BD
:1017B0001748FFF711FA1648FFF726FA1448FFF703
:1017C000FBF91348FFF7E8F90023C7F8AC30114BD9
:1017D000C7F8B0300023C7F8B4300023C7F8B830DA
:1017E0000023C7F8BC300023C7F8C0300023C7F877
:1017F000C43007F1AC03194605480CF093FC0448CB
:10180000FFF7BAF900BFC837BD4680BD00040240EB
:1018100000540040FFF1203080B500AF0E48FFF7C4
:1018200013FA0D48FFF71EFA05210B48FFF728FAB7
:101830004FF47A610848FFF733FA00BF0648FFF714
:101840004FFA0346012BF9D14FF47A610248FFF7B2
:1018500037FA00BF80BD00BF0030004080B590B0B7
:1018600000AF07F118032822002118460EF074FB80
:101870003B4600221A605A609A60DA601A615A6127
:101880004FF48050FFF74EFC0120FFF71BFC1023A4
:101890003B6002237B600323BB600023FB600023CB
:1018A0003B6105237B613B46194644480CF023FB12
:1018B00020233B6002237B600323BB600023FB608B
:1018C00000233B6105237B613B4619463B480CF0F6
:1018D00012FB40233B6002237B600323BB60002399
:1018E000FB6000233B6105237B613B46194633487F
:1018F0000CF001FB80233B6002237B600323BB6071
:101900000023FB6000233B6105237B613B461946B6
:101910002A480CF0F0FA4FF0C06203212848FFF784
:10192000E7F8402203212648FEF7E6FF4FF4003295
:1019300003212348FFF7B8F8002203212048FEF7CF
:10194000FFFF002203211E48FFF71EF84FF48062BC
:1019500003211B48FFF73CF8002203211848FFF73A
:101960005BF8002203211648FFF77AF80321144898
:10197000FFF7E2F80023BB610023FB614FF4E06353
:101980003B6202237B620023BB620023FB620023D5
:101990007B630023BB630723FB6307F1180319462E
:1019A00008480CF097FF00210648FFF7BCF90548EE
:1019B000FFF7DCF900BF4037BD4680BD00000240A4
:1019C000006402400030014080B590B000AF07F1E4
:1019D00018032822002118460EF0BEFA3B460022CA
:1019E0001A605A609A60DA601A615A614FF4804056
:1019F000FFF780FB0220FFF765FB4FF400533B60CD
:101A000002237B600323BB600023FB6000233B6158
:101A100005237B613B46194628480CF06CFA4FF4CD
:101A200080433B6002237B600323BB600023FB6099
:101A300000233B6105237B613B4619461F480CF0A0
:101A40005AFA4FF400433B6002237B600323BB60E0
:101A50000023FB6000233B6105237B613B46194665
:101A600016480CF048FA0023BB614FF48273FB6107
:101A70004FF4E0633B6200237B620123BB624FF4BF
:101A80000073FB6218233B6300237B630023BB636B
:101A90000723FB6307F11803194609480CF01AFFE6
:101AA00000210748FFF73FF90548FFF75FF90448B1
:101AB000FFF729F900BF4037BD4680BD0004024052
:101AC0000038004080B590B000AF07F1180328221D
:101AD000002118460EF040FA3B4600221A605A6078
:101AE0009A60DA601A615A614FF40040FFF702FB16
:101AF0000420FFF7E7FA4FF480633B6002237B602A
:101B00000323BB600023FB6000233B6106237B6152
:101B10003B46194628480CF0EEF94FF400633B6051
:101B200002237B600323BB600023FB6000233B6137
:101B300006237B613B4619461F480CF0DCF94FF445
:101B400080533B6002237B600323BB600023FB6068
:101B500000233B6106237B613B46194616480CF087
:101B6000CAF90023BB614FF48273FB614FF4E06359
:101B70003B6200237B620023BB624FF40073FB6275
:101B800000233B6300237B630023BB630723FB63CA
:101B900007F11803194609480CF09CFE002107487C
:101BA000FFF7C1F80548FFF7D1F80448FFF7ABF895
:101BB00000BF4037BD4680BD00080240003C0040E9
:101BC00080B590B000AF07F1180328220021184615
:101BD0000EF0C2F93B4600221A605A609A60DA6041
:101BE0001A615A614FF40050FFF79CFA1020FFF77A
:101BF00069FA4FF480533B6002237B600323BB6090
:101C00000023FB6000233B6105237B613B461946B3
:101C100041480CF070F94FF400533B6002237B60A5
:101C20000323BB600023FB6000233B6105237B6132
:101C30003B46194638480CF05EF94FF480433B6050
:101C400002237B600323BB600023FB6000233B6116
:101C500005237B613B4619462F480CF04CF94FF0A9
:101C6000006200212D48FEF743FF002200212B488F
:101C7000FEF742FE4FF4403200212848FEF714FFE1
:101C80004FF4807200212548FEF75AFE0022002101
:101C90002248FEF779FE4FF4806200211F48FEF7CC
:101CA00097FE4FF4006200211C48FEF7B5FE4FF48A
:101CB000005200211948FEF7D3FE00211748FEF715
:101CC0003BFF0023BB614FF48273FB614FF47063F1
:101CD0003B6200237B620023BB624FF40073FB6214
:101CE00008233B6300237B630023BB630723FB6361
:101CF00007F1180319460A480CF0ECFD00210848CA
:101D0000FFF711F80648FFF721F80548FEF7FBFF3B
:101D100000BF4037BD4680BD001002400064024055
:101D20000034014080B590B000AF07F118032822BD
:101D3000002118460EF010F93B4600221A605A6046
:101D40009A60DA601A615A614FF40010FFF7EAF9FD
:101D50000220FFF7B7F908233B6002237B600323CF
:101D6000BB600023FB6000233B6108237B613B4693
:101D7000194657480CF0BFF810233B6002237B60E4
:101D80000323BB600023FB6000233B6108237B61CE
:101D90003B4619464E480CF0AEF820233B60022328
:101DA0007B600323BB600023FB6000233B610823AF
:101DB0007B613B46194646480CF09DF84FF0007297
:101DC00005214448FEF794FE402205214148FEF7D4
:101DD00093FD4FF4403205213E48FEF765FE002298
:101DE00005213C48FEF7ACFD002205213948FEF7ED
:101DF000CBFD4FF4806205213648FEF7E9FD002255
:101E000005213448FEF708FE002205213148FEF77F
:101E100027FE05212F48FEF78FFE4FF000720621A6
:101E20002C48FEF765FE002206212A48FEF764FDD5
:101E30004FF4403206212748FEF736FE00220621E5
:101E40002448FEF77DFD002206212248FEF79CFD76
:101E50004FF4806206211F48FEF7BAFD00220621DA
:101E60001C48FEF7D9FD002206211A48FEF7F8FDAE
:101E700006211848FEF760FE0023BB614FF4827311
:101E8000FB614FF4E0633B6200237B620023BB6293
:101E90004FF40073FB6200233B6300237B6300234A
:101EA000BB630723FB6307F1180319460A480CF0CC
:101EB00011FD00210848FEF736FF0748FEF746FFF0
:101EC0000548FEF720FF00BF4037BD4680BD00BF7C
:101ED00000040240006402400054014080B586B016
:101EE00000AF3B1D00221A605A609A60DA601A61E6
:101EF0000120FFF717F9FEF7E1FB0346002200215E
:101F00001846FEF731FC034619461920FEF702FC7D
:101F10001920FEF7E1FB0023BB800023BB604FF6D6
:101F2000FF73FB6000233B6100237B613B1D19466F
:101F30000C480CF0C3FD0B48FEF738FF00210948A0
:101F4000FEF7E6FF00210748FEF7F8FF00210548ED
:101F5000FFF707F80348FFF717F800BF1837BD462B
:101F600080BD00BF0000014080B586B000AF3B1DC2
:101F700000221A605A609A60DA601A610120FFF745
:101F8000B9F8FEF79BFB0346002202211846FEF734
:101F9000EBFB034619461C20FEF7BCFB1C20FEF79A
:101FA0009BFB0023BB800023BB604FF0FF33FB6033
:101FB00000233B613B1D19464FF080400CF07EFD35
:101FC0004FF08040FEF7E2FE00214FF08040FEF728
:101FD0009FFF00214FF08040FEF7B0FF4FF08040A0
:101FE000FEF7D2FF00BF1837BD4680BD80B594B064
:101FF00000AF07F13C0300221A605A609A60DA6071
:102000001A6107F11C032022002118460DF0A4FFDD
:102010003B1D00221A605A609A60DA601A615A61A8
:102020000420FFF767F80A23BB8700233B644CF2C8
:1020300050337B644FF40073BB6407F13C031946D3
:1020400055480CF03BFD5448FEF7B0FE00215248C5
:10205000FEF75EFF01215048FEF70AFF6023FB6197
:1020600000233B6200237B620023BB620023FB62F0
:1020700007F11C031A46012147480CF0B9FD012164
:102080004548FEF7A3FE10214348FEF7F1FE07F195
:102090001C031A46102140480CF0AAFD10213E48AE
:1020A000FEF794FE4FF480713B48FEF7E1FE07F126
:1020B0001C031A464FF4807137480CF099FD4FF419
:1020C00080713548FEF782FE4FF480513248FEF7AA
:1020D000CFFE07F11C031A464FF480512E480CF036
:1020E00087FD4FF480512C48FEF770FE00212A48EE
:1020F000FEF724FF2848FEF747FF0820FEF7E2FF1F
:102100004FF480537B600223BB600023FB600023FD
:102110003B6100237B610223BB613B1D19461F48C5
:102120000BF0E9FE4FF400537B600223BB600023F9
:10213000FB6000233B6100237B610223BB613B1DED
:10214000194616480BF0D7FE4FF480437B600223FC
:10215000BB600023FB6000233B6100237B61022303
:10216000BB613B1D19460D480BF0C5FE4FF4004303
:102170007B600223BB600023FB6000233B610023E4
:102180007B610223BB613B1D194604480BF0B3FE83
:1021900000BF5037BD4680BD00080040000C024023
:1021A00080B5B2B000AF07F1AC0300221A605A60EC
:1021B0009A60DA601A615A619A6107F19403002209
:1021C0001A605A609A60DA601A615A613B1D902267
:1021D000002118460DF0C0FE4FF480537B600023B1
:1021E0003B663B1D18460BF0AFF80346002B01D0B1
:1021F00000F0A2FC4FF08040FEF77CFF1020FEF7BD
:1022000061FF8023C7F894300223C7F89830032376
:10221000C7F89C300023C7F8A0300123C7F8A430CA
:102220000823C7F8A83007F19403194628480BF093
:1022300062FE4FF48073C7F894300223C7F89830D9
:102240000323C7F89C300023C7F8A0300023C7F849
:10225000A4300823C7F8A83007F1940319461C4896
:102260000BF049FEFEF72AFA034600220B2118461E
:10227000FEF77AFA034619465220FEF74BFA52202F
:10228000FEF72AFA4FF4E133C7F8AC300023C7F861
:10229000B0300023C7F8B4300023C7F8B8300C239F
:1022A000C7F8BC300023C7F8C0300023C7F8C430DB
:1022B00007F1AC03194607480CF0BAFF0548FEF7D2
:1022C000CEFE0448FEF770FE00BFC837BD4680BD95
:1022D000001002400078004080B5B2B000AF07F1B6
:1022E000AC0300221A605A609A60DA601A615A617F
:1022F0009A6107F1940300221A605A609A60DA60CA
:102300001A615A613B1D9022002118460DF024FEEF
:1023100040237B600023BB643B1D18460BF014F880
:102320000346002B01D000F007FC1020FEF7FAFE58
:102330000120FEF7C7FE4FF40073C7F89430022364
:10234000C7F898300323C7F89C300023C7F8A030A3
:102350000023C7F8A4300723C7F8A83007F1940377
:10236000194635480BF0C7FD4FF48063C7F8943029
:102370000223C7F898300323C7F89C300023C7F81E
:10238000A0300023C7F8A4300723C7F8A83007F10E
:102390009403194628480BF0AEFD4FF48053C7F85C
:1023A00094300223C7F898300323C7F89C300023E9
:1023B000C7F8A0300023C7F8A4300723C7F8A83017
:1023C00007F1940319461C480BF095FD4FF4E133D7
:1023D000C7F8AC300023C7F8B0300023C7F8B430DA
:1023E0000023C7F8B8300C23C7F8BC300023C7F867
:1023F000C0300023C7F8C43007F1AC0319460F48BA
:102400000CF016FF0D48FEF707FE00210B48FEF703
:1024100013FE00210948FEF7EBFD00210748FEF7F7
:10242000D3FD0648FEF71BFE0448FEF7BDFD00BFC6
:10243000C837BD4680BD00BF00000240001001400B
:1024400080B500AF4FF48000FEF73CFEFEF736F992
:102450000346002201211846FEF786F90346194675
:102460003820FEF757F93820FEF736F9FEF726F93F
:10247000034600220A211846FEF776F9034619465C
:102480003A20FEF747F93A20FEF726F9FEF716F94B
:102490000346002201211846FEF766F90346194655
:1024A0003B20FEF737F93B20FEF716F9FEF706F959
:1024B000034600220A211846FEF756F9034619463C
:1024C0003C20FEF727F93C20FEF706F9FEF7F6F868
:1024D0000346002209211846FEF746F9034619462D
:1024E0004420FEF717F94420FEF7F6F8FEF7E6F869
:1024F0000346002209211846FEF736F9034619461D
:102500004520FEF707F94520FEF7E6F800BF80BD3D
:1025100080B586B000AF3B4600221A605A609A60D0
:10252000DA601A615A611020FEF7CCFD0420FEF734
:10253000C9FD8020FEF7C6FD0120FEF7C3FD022085
:10254000FEF7C0FD0820FEF7BDFD0421BF48FEF7E1
:10255000AAFD0821BD48FEF7A6FD1021BB48FEF7E5
:10256000A2FD2021B948FEF79EFD4021B748FEF7A5
:102570009AFD4FF40051B648FEF795FD4FF48041A7
:10258000B348FEF790FD4FF40041B148FEF78BFDD4
:102590004FF40061AF48FEF786FD4FF40061AE488E
:1025A000FEF781FD4FF40041AB48FEF77CFD0121B1
:1025B000AA48FEF778FD0221A848FEF774FD102115
:1025C000A648FEF770FD2021A448FEF76CFD4021CF
:1025D000A248FEF768FD04219E48FEF756FD4FF421
:1025E00080619A48FEF751FD4FF400619748FEF76D
:1025F0004CFD4FF400419548FEF747FD4FF48061D4
:102600009448FEF742FD4FF480519248FEF73DFD9D
:102610004FF480719148FEF738FD4FF400718F48F8
:10262000FEF733FD4FF480718948FEF72EFD4FF41D
:1026300080718948FEF729FD04218848FEF725FDB1
:1026400080218648FEF721FD4FF480718148FEF716
:102650001CFD4FF400717F48FEF717FD01217B48F8
:10266000FEF713FD02217948FEF70FFD04233B60BE
:1026700001237B600023BB600023FB6000233B61E0
:102680003B46194671480BF036FC08233B6001239A
:102690007B600023BB600023FB6000233B613B4663
:1026A00019466A480BF027FC10233B6001237B602E
:1026B0000023BB600023FB6000233B613B461946BF
:1026C00062480BF018FC20233B6001237B60002351
:1026D000BB600023FB6000233B613B4619465B481F
:1026E0000BF009FC40233B6001237B600023BB60AF
:1026F0000023FB6000233B613B46194653480BF027
:10270000FAFB4FF400533B6001237B600023BB6066
:102710000023FB6000233B613B4619464C480BF00D
:10272000EAFB4FF480433B6001237B600023BB60E6
:102730000023FB6000233B613B46194644480BF0F5
:10274000DAFB4FF400433B6001237B600023BB6056
:102750000023FB6000233B613B4619463C480BF0DD
:10276000CAFB02233B6003237B6000233B613B46A3
:10277000194639480BF0BFFB04233B6001237B6003
:102780000023BB600023FB6000233B613B461946EE
:1027900030480BF0B0FB4FF480633B6001237B605B
:1027A0000023BB600023FB6000233B613B461946CE
:1027B00026480BF0A0FB4FF400633B6001237B60D5
:1027C0000023BB600023FB6000233B613B461946AE
:1027D0001E480BF090FB4FF400433B6001237B60ED
:1027E0000023BB600023FB6000233B613B4619468E
:1027F00016480BF080FB4FF480633B6001237B6045
:102800000023BB600023FB6001233B613B4619466C
:1028100010480BF070FB4FF400633B6001237B60BA
:102820000023BB600023FB6002233B613B4619464B
:1028300008480BF060FB4FF480533B6001237B6042
:102840000023BB600023FB60002309E0001002406E
:10285000000802400004024000000240000C024058
:102860003B613B461946AF480BF045FB4FF4807384
:102870003B6001237B600323BB600023FB600023DC
:102880003B613B461946A8480BF035FB4FF40073FB
:102890003B6001237B600323BB600023FB600023BC
:1028A0003B613B461946A0480BF025FB4FF4806383
:1028B0003B6000237B6000233B613B4619469A48FE
:1028C0000BF019FB4FF400633B6000237B60002397
:1028D0003B613B46194694480BF00DFB40233B609F
:1028E00002237B600323BB600023FB6000233B616A
:1028F00008237B613B4619468C480BF0FCFA802389
:102900003B6002237B600323BB600023FB6000234A
:102910003B6108237B613B46194684480BF0EBFA88
:102920004FF480733B6001237B600023BB60002376
:10293000FB6001233B613B4619467C480BF0DBFA08
:102940004FF400733B6000237B6000233B613B46F8
:10295000194676480BF0CFFA4FF480733B600123A1
:102960007B600323BB600023FB6000233B613B468D
:1029700019466F480BF0BFFA4FF400633B60012328
:102980007B600023BB600023FB6000233B613B4670
:10299000194667480BF0AFFA4FF400433B60012340
:1029A0007B600023BB600023FB6000233B613B4650
:1029B00019465F480BF09FFA01233B6001237B60BF
:1029C0000023BB600023FB6000233B613B461946AC
:1029D00055480BF090FA02233B6001237B600023F3
:1029E000BB600023FB6000233B613B4619464E4819
:1029F0000BF081FA04233B6001237B600023BB6062
:102A00000023FB6000233B613B46194646480BF020
:102A100072FA08233B6000237B6000233B613B4646
:102A2000194641480BF067FA10233B6001237B6095
:102A30000023BB600023FB6000233B613B4619463B
:102A400039480BF058FA20233B6001237B600023B8
:102A5000BB600023FB6000233B613B4619463248C4
:102A60000BF049FA40233B6001237B600023BB60ED
:102A70000023FB6000233B613B4619462A480BF0CC
:102A80003AFA80233B6001237B600023BB60002374
:102A9000FB6000233B613B46194623480BF02BFAB1
:102AA0004FF480733B6001237B600023BB600023F5
:102AB000FB6000233B613B4619461A480BF01BFAAA
:102AC0004FF400733B6001237B600023BB60002355
:102AD000FB6000233B613B46194612480BF00BFAA2
:102AE00001233B6001237B600023BB600023FB606C
:102AF00000233B613B4619460E480BF0FCF90223CC
:102B00003B6001237B600023BB600023FB6000234C
:102B10003B613B46194607480BF0EDF900BF1837FB
:102B2000BD4680BD00040240000C02400008024087
:102B3000000002400010024080B400AF72B600BF37
:102B400000BFFDE780B483B000AF0F4B1B6C0E4A93
:102B500043F0805313640C4B1B6C03F080537B6079
:102B60007B68094B5B6C084A43F480435364064B13
:102B70005B6C03F480433B603B6800BF0C37BD4691
:102B80005DF8047B704700BF0038024080B485B018
:102B900000AF78607B681B680A4A93420BD10A4BEE
:102BA0001B6B094A43F480531363074B1B6B03F4FD
:102BB0008053FB60FB6800BF1437BD465DF8047BA3
:102BC000704700BF003002400038024080B400AFC0
:102BD00000BFFDE780B400AF00BFFDE780B400AFE9
:102BE00000BFFDE780B400AF00BFFDE780B400AFD9
:102BF00000BFFDE780B400AF00BFBD465DF8047BB9
:102C0000704780B400AF00BFBD465DF8047B7047DD
:102C100080B400AF00BFBD465DF8047B704780B54F
:102C200000AF04F017FC04F069FB09F0F1FB09F0B8
:102C3000BBFC05F09DFE00BF80BD80B500AF05F078
:102C400099F900BF80BD80B500AF04F087FB00BFDD
:102C500080BD80B500AF04F071FC00BF80BD80B4C2
:102C600000AF01231846BD465DF8047B704780B570
:102C700082B000AF786039600DF0C0F903461622CB
:102C80001A604FF0FF3318460837BD4680BD80B547
:102C900082B000AF78604FF0FF317868FFF7E7FF50
:102CA00000BFFDE780B586B000AFF860B9607A601C
:102CB00000237B610AE0AFF300800146BB685A1C29
:102CC000BA60CAB21A707B6901337B617A697B682A
:102CD0009A42F0DB7B6818461837BD4680BD80B548
:102CE00086B000AFF860B9607A6000237B6109E0CC
:102CF000BB685A1CBA601B781846AFF300807B692A
:102D000001337B617A697B689A42F1DB7B68184604
:102D10001837BD4680BD80B483B000AF78604FF0F7
:102D2000FF3318460C37BD465DF8047B704780B40E
:102D300083B000AF786039603B684FF400525A604E
:102D4000002318460C37BD465DF8047B704780B4FD
:102D500083B000AF7860012318460C37BD465DF89C
:102D6000047B704780B485B000AFF860B9607A60CA
:102D7000002318461437BD465DF8047B70470000F9
:102D800080B586B000AF7860144A154BD31A7B61CA
:102D90007B693B61134B1B68002B02D1114B124A1C
:102DA0001A60104B1A687B6813443A699A4207D23A
:102DB0000DF024F903460C221A604FF0FF3309E0AE
:102DC000084B1B68FB60074B1A687B681344054A75
:102DD0001360FB6818461837BD4680BD0000082008
:102DE000000400002444002090D6022080B400AFEC
:102DF000064BD3F88830054A43F47003C2F8883094
:102E000000BFBD465DF8047B704700BF00ED00E0E9
:102E1000DFF834D0FFF7EAFF0C480D490D4A0023D4
:102E200002E0D458C4500433C4188C42F9D30A4A7F
:102E30000A4C002301E013600432A242FBD30DF0E0
:102E4000E3F8FEF78DF9704700000820000000202D
:102E5000E443002010310308E443002090D6022010
:102E6000FEE780B500AF00F0E9F802F043FB01F0A7
:102E7000E3FE00F09DFE02F083F902F09BF803F000
:102E8000D5FC00BF80BD80B500AF012000F0F8F890
:102E9000022002F055FB052001F0F0FE062002F0B2
:102EA000A9F9072000F0AAFE082002F0C3F80A20C2
:102EB00003F0F4FC00BF80BD80B500AF09F090F9CD
:102EC00000BF80BD80B582B000AF7860396004F08B
:102ED0006DF805F0B7F904F02FFE04F0ADFA04F038
:102EE000BDF97B68012283F84D207B68002283F8BE
:102EF000522000F097FC0346002B2AD003F01AFD65
:102F00001E4B5A687B689A621C4B1A897B68DA856B
:102F10001A4B5A897B681A86184B9A897B685A869D
:102F200003F02CFD7B689A6A7B68DB8D19467B6811
:102F30001B8E0B447968498E0B44114981FB0301B8
:102F40008911DB17CB1A02FB03F39A0A7B685A63D9
:102F500010E07B680B4A9A627B686422DA857B68A2
:102F600040F6D8621A867B6864225A867B6840F2F3
:102F7000A2725A6300BF0837BD4680BD00400240C0
:102F8000D34D621020A1070080B584B000AF7860F7
:102F900039607B685B69FB607B685B69396878686E
:102FA00098470346FB72FB7A002B08D1FB68064961
:102FB000786898477B685B6904497868984700BFE0
:102FC0001037BD4680BD00BF4C28030838280308D1
:102FD00080B584B002AF786039607B68002B03D184
:102FE0000021134803F09AFC78683B685A683B68F4
:102FF0009B68009313460F4A0F4909F043F93B6859
:103000001A687B685A617B6818337A681B211846F6
:1030100009F098F97B681833184609F0D5F93B6830
:103020001A7B7B6883F8482000BF0837BD4680BD07
:1030300028280308892F0208C52E020890B587B0FA
:1030400002AF122300930A23B4220949094808F069
:10305000FFFC094B3C460FCB84E80F003B4619466A
:103060000648FFF7B5FF00BF1437BD4690BD00BF4F
:10307000B444002084440020B01B030828440020EE
:1030800080B582B000AF0346FB71FB791946034857
:1030900009F012F900BF0837BD4680BD2844002062
:1030A00080B582B000AF786039603B681B88013B17
:1030B0001D2B58D801A252F823F000BF3531020869
:1030C0006731020867310208673102086731020878
:1030D0006731020867310208673102086731020868
:1030E0006731020867310208673102086731020858
:1030F0006731020867310208673102086731020848
:103100006731020867310208673102086731020837
:103110006731020867310208673102086731020827
:10312000673102086731020843310208533102084F
:103130005D3102087B681833184609F045F9012310
:1031400012E0212008F018FF7B68094A5A61002329
:103150000AE07B68074A5A61002305E07B68064A5B
:103160005A61002300E0022318460837BD4680BD9F
:103170007D310208353302085134020880B588B029
:1031800000AF786039603B681B88013B202B00F260
:10319000C78001A252F823F01D3202082133020831
:1031A0008B3202082133020821330208213302083E
:1031B0002133020821330208213302082133020897
:1031C0002133020821330208213302082133020887
:1031D0002133020821330208213302082133020877
:1031E0002133020821330208213302082133020867
:1031F0002133020821330208213302082133020857
:103200000F33020821330208213302082133020858
:1032100099320208B9320208D93202087B681833A1
:10322000002244F62061184609F0AEF87B6893F856
:103230002C301946786800F0D3F9786800F0E9F985
:103240007B68DB8DFB607B681B8E3B617B685B8EE4
:103250007B617B689B6ABB617B6893F82C30FB6168
:103260007B6893F82D30184603F056FF07F10C03E6
:10327000184604F027FC04F04BF804F02FFE7B689E
:10328000002283F8482001234BE07B68183318465E
:1032900009F09AF8012344E07B6893F84830002B4A
:1032A00004D17B68012283F8482003E07B68032275
:1032B00083F84820012334E07B6893F84830012BE1
:1032C00004D17B68022283F8482003E07B68032254
:1032D00083F84820012324E0222008F04DFE7B687B
:1032E00093F84830022B04D17B68052283F84820EC
:1032F00003E07B68032283F848200C4B1B681846C8
:1033000000F068FD7B680A4A5A61002309E07B6887
:10331000042283F848207B68054A5A61002300E0B4
:10332000022318462037BD4680BD00BF080000209C
:10333000A130020880B582B000AF786039603B6888
:103340001B88242B1ED0242B73DC232B3ED0232B55
:103350006FDC012B02D0222B2BD06AE07B68183364
:10336000184609F031F87B681B6C344A53607B685F
:10337000DB6B324A1360324B1B68184601F09CFD30
:10338000012357E02D4B5B68B3F5804F28BF4FF406
:1033900080439AB22B4B1A80284B1B685B00294A4A
:1033A000128852001146284A184604F07DFF012376
:1033B00040E0234B1868234B1B881A467B6893F820
:1033C0004530214901F054FD012333E01B4B5B687C
:1033D0001C4A12889B1A194A5360184B1B68194AD9
:1033E00012881344154A1360144B5B68002B16D0E7
:1033F000124B5B68B3F5804F28BF4FF480439AB2FD
:10340000104B1A800D4B1B685B000E4A128852004D
:1034100011460D4A184604F047FF01230AE0084B05
:103420001B68184601F058FD7B68084A5A61002362
:1034300000E0022318460837BD4680BD68450020DD
:103440000400002074C5002074450020A13002084B
:1034500080B582B000AF786039603B681B88012B73
:1034600002D0222B10D01CE07B681833184608F0DD
:10347000ABFF7B68DB6B5B000C4A4FF400411846E6
:1034800004F012FF01230DE0084805F00FF9084B86
:103490001B68184601F028FE7B68064A5A61002323
:1034A00000E0022318460837BD4680BD7445002061
:1034B0000C000020A130020880B582B000AF786017
:1034C0007B680449184608F021FF00231846083796
:1034D000BD4680BD8828030880B584B000AFF86081
:1034E000B9607A60BB68012B02D87B68642B01D974
:1034F000062318E0FB6893F84D30002B06D000201F
:1035000003F010FDFB68002283F84D207968B8684D
:1035100003F03EFE7B68D9B2FA68BB6813444933B6
:103520000A461A70002318461037BD4680BD80B584
:1035300082B000AF786039603B68242B01D9062344
:1035400014E07B6893F84D30012B06D0012003F086
:10355000E9FC7B68012283F84D20386803F05EFDAA
:103560003B68DAB27B6883F84B20002318460837A3
:10357000BD4680BD80B582B000AF78607B6893F8AF
:103580004D30012B06D0012003F0CCFC7B680122DA
:1035900083F84D2003F064FD7B68FF2283F84B2005
:1035A000002318460837BD4680BD80B582B000AF05
:1035B00078607B6893F84D30012B06D0012003F032
:1035C000B1FC7B68012283F84D2003F087FD7B6806
:1035D000FF2283F84C20002318460837BD4680BDE3
:1035E00080B582B000AF786039603B68242B01D988
:1035F00006230AE004F030FB386804F055FB3B6812
:10360000DAB27B6883F84E20002318460837BD469F
:1036100080BD80B582B000AF786004F031FB00233C
:1036200018460837BD4680BD80B582B000AF7860CF
:1036300039603B681B68002B04D03B681B68154A47
:10364000934201D9062321E03B68DB68B3F5006FA4
:1036500001D906231AE03B681A687B689A623B68C6
:10366000DA887B68DA853B681A897B681A863B684A
:103670005A897B685A863B68DA687B685A633B687C
:103680001A697B689A6300F0A5F80023184608378A
:10369000BD4680BD50F80C0080B483B000AF7860A8
:1036A00039603B685B79642B01D9062305E03B68F0
:1036B0005A797B6883F82D20002318460C37BD46C5
:1036C0005DF8047B704780B483B000AF78603960E8
:1036D0003B681B79002B03D03B681B79242B01D955
:1036E000062305E03B681A797B6883F82C200023C9
:1036F00018460C37BD465DF8047B7047B0B483B004
:1037000000AF786039603A687B68154603F1280499
:103710000FCC0FC523682B6000BF0C37BD46B0BC73
:103720007047000080B584B000AF78607B682833B4
:10373000FB60FB681B68002B04D0FB681B68134A06
:10374000934201D906231CE0FB681B79002B03D0B0
:10375000FB681B79242B01D9062312E0FB685B79F7
:10376000642B01D906230CE0FB68DB68B3F5006F1E
:1037700001D9062305E07B680549184608F0C6FD17
:10378000002318461037BD4680BD00BF50F80C001E
:103790006028030880B582B000AF78600B467B805C
:1037A0007B889B031A467B68DA637B684FF4804210
:1037B0001A647B68012283F844207B680449184618
:1037C00008F0A4FD002318460837BD4680BD00BFA1
:1037D0007428030880B582B000AF03F0ABF80F4B3C
:1037E0004FF0BC321A600E4B9B6A0C4A53600C4B74
:1037F000DA8D0A4B1A810A4B1A8E084B5A81084BF4
:103800005A8E064B9A8100237B60044A7B681361C1
:1038100003F0B4F800BF0837BD4680BD0040024049
:103820002844002080B500AF03F084F8084B1B68E3
:10383000B3F1BC3F06D01422002105480CF08CFBEC
:10384000002302E003F09AF80123184680BD00BF70
:103850000040024080B483B000AF786039607B687C
:103860003A689A6100BF0C37BD465DF8047B70472B
:1038700080B483B000AF786039603B681A047B681D
:103880009A6100BF0C37BD465DF8047B70470000AD
:1038900080B582B000AF78600B46FB707B68FA7829
:1038A0001146184607F0B2FE00F0E8FA02467B68BF
:1038B000C3F804227B68002283F80C227B68012273
:1038C00083F80D22FB78032B04D8FB7806497A682D
:1038D00041F823207B680121184607F039FB00BF1F
:1038E0000837BD4680BD00BF7CC8002080B582B0CF
:1038F00000AF78607A687B6893F80032194610460A
:1039000007F084FE7B680121184607F021FB00F0D8
:10391000B5FA02467B68C3F804227B68002283F86C
:103920000C2200BF0837BD4680BD80B483B000AF15
:10393000786039607B683A68C3F8082200BF0C37AA
:10394000BD465DF8047B704780B586B000AFF86077
:10395000B9607A60FB687A68B968184607F0B0FD0C
:1039600000F08CFA7861FB6893F8E230002B35D0D8
:10397000FB6893F8E4301A4613465B0013449B003F
:10398000FA6813443B613B691B687A69D31A40F6B5
:10399000B83293421ED9FB6893F80C3283F00103CE
:1039A000DBB2002B1AD0FB68D3F80832002B04D00E
:1039B000FB68D3F80832F8689847FB68012283F85F
:1039C0000C22FB6893F80D32002B07D0F868FFF744
:1039D0008DFF03E0FB68002283F80C22FB687A6904
:1039E000C3F8042200BF1837BD4680BD80B483B041
:1039F00000AF786000BF0C37BD465DF8047B7047B0
:103A000080B500AF4FF480720849094808F046F9C4
:103A10004FF480720749084808F040F9064B044A01
:103A20000649074807F0F8FE00BF80BDB4C9002072
:103A30008CC90020B4CA0020A0C900200078004032
:103A4000B4CB002080B582B000AF786039607B686D
:103A5000002B03D101210F4802F060FF7B680E4A62
:103A60009A610E490C48FFF760FF7B6824330A22F5
:103A70000A21184608F088FC094807F0E9FE7B682F
:103A80009B6900211846FFF703FF00BF0837BD46BA
:103A900080BD00BF9C2803086CC60020ED390208D9
:103AA000B4CB002080B584B000AF786039607B680B
:103AB000002B03D10421124802F030FF3B68002B99
:103AC00003D105210E4802F029FF7B685B69FB608A
:103AD0007B685B693968786898470346FB72FB7AB4
:103AE000002B08D1FB680749786898477B685B69B9
:103AF00005497868984700BF1037BD4680BD00BFB4
:103B00009C280308B4280308A828030880B584B0BB
:103B100002AF786039607B68002B03D10221214815
:103B200002F0FCFE78683B68DA683B681B6900932A
:103B300013461D4A1D4908F0A5FB7B6824337A68AB
:103B40000D21184608F0FEFB7B6834337A6810219B
:103B5000184608F0F7FB7B6844337A681121184651
:103B600008F0F0FB3B681A687B685A613B685A684A
:103B70007B689A613B689A687B68DA617B6824336A
:103B8000184608F021FC7B683433184608F01CFC0A
:103B90007B684433184608F017FC00BF0837BD4661
:103BA00080BD00BF9C280308A53A0208453A0208D8
:103BB000B0B588B002AFFFF723FF0C2300930A23B0
:103BC00078220A490A4807F043FF0A4B3C1D1D466C
:103BD0000FCD0FC42B6823603B1D19460648FFF725
:103BE00095FF00BF1837BD46B0BD00BFF4C500202B
:103BF000CCC50020C01B030878C5002080B582B06A
:103C000000AF0346FB71FB791946034808F054FBEB
:103C100000BF0837BD4680BD78C5002080B582B0A2
:103C200000AF786039607B68002B03D103215948CD
:103C300002F074FE3B681B88013B102B00F2A5804C
:103C400001A252F823F000BF8D3C02088B3D020810
:103C50008B3D02088B3D02088B3D02088B3D02081C
:103C60008B3D02088B3D02088B3D02088B3D02080C
:103C70008B3D02088B3D0208A93C0208EF3C02087C
:103C80001D3D02084D3D02087D3D02084FF496712E
:103C9000032002F06BFC7B6824330A220A211846B9
:103CA00008F072FB012371E0032002F097FC3A4B0D
:103CB0004FF480721A607B68DB69374A37491846CF
:103CC00007F0E6FD0346002B08D07B689B69324A6B
:103CD000126832491846FFF737FE06E07B689B6999
:103CE000002200211846FFF72FFE01234EE003209B
:103CF00002F05AFC7B682433184608F065FB4FF449
:103D000000612748FFF7A6FD7B683433002244F6A4
:103D10002061184608F038FB012337E04FF4967114
:103D2000032002F023FC7B683433184608F04CFB78
:103D30004FF400611A48FFF79BFD7B6824330A2289
:103D40000A21184608F020FB01231FE04FF496716A
:103D5000032002F00BFC7B683433184608F034FB78
:103D60004FF400610E48FFF783FD7B6824330A227D
:103D70000A21184608F008FB012307E0032002F09F
:103D800013FC02F013FD012300E00223184608375C
:103D9000BD4680BD9C280308100000208CC8002070
:103DA0000004024080B586B000AF786007F10C03D4
:103DB00000221A605A609A600E23BB817B6807F16B
:103DC0000C021146184608F0A1FA002318461837CD
:103DD000BD4680BD80B586B000AF786007F10C03AA
:103DE00000221A605A609A600F23BB817B6807F13A
:103DF0000C021146184608F089FA002318461837B5
:103E0000BD4680BD80B582B000AF78607B6844332A
:103E100000224FF4FA61184608F0B6FA002318465B
:103E20000837BD4680BD000080B582B000AF0346B4
:103E3000FB71064BDB699B68184608F037F80346B0
:103E40009BB218460837BD4680BD00BF78C500202C
:103E500080B582B000AF03460A46FB711346BB71C2
:103E6000054BDB69BA791146184607F049FD00BFDA
:103E70000837BD4680BD00BF78C5002080B500AFC3
:103E800008F014FB0346184680BD000080B586B0DC
:103E900000AF396011461A460346FB710B46BB71F1
:103EA00013467B717B79032B34D87B791C4A52F8FB
:103EB00023303B613B69002B2ED01A4B1B68002B33
:103EC00005D0184B1B68BA79F8793968984700F023
:103ED00039FEF86000F040FEB86000237B6114E01A
:103EE0007B69DB00FA6813441B78FA799A4209D19E
:103EF0007B69DB00FA6813445B68BA793968386912
:103F000098470AE07B6901337B617A69BB689A4212
:103F1000E6DB02E000BF00E000BF1837BD4680BD11
:103F20007CC80020C4CB002080B584B000AFF8600E
:103F30007A601A460B46FB721346BB72FB68BA7A6C
:103F40001146184607F060F80346002B05D0F868C4
:103F5000BB7AF97A7A6807F00FF800BF1037BD46D0
:103F600080BD000080B500AF074BDB69184607F045
:103F70000DFD054BDB69184607F037FD034B4FF08D
:103F8000FF321A6200BF80BD78C500200078004073
:103F900080B584B000AFF860B9601346FB710023B0
:103FA00000220121F868FFF7BFFF044B1B68184689
:103FB000FFF728FF00BF1037BD4680BD140000206A
:103FC00080B584B000AFF860B9601346FB71FB792F
:103FD000BA680321F868FFF7A7FF00BF1037BD4696
:103FE00080BD80B588B002AFF860B9601346FB7140
:103FF000BB681B78FB75BB6801331B78BB75BB685E
:1040000002331B787B75BB6803331B783B75FB79E8
:10401000BA680521F868FFF787FFF97DBA7D787DDA
:104020003B7D00930346242007F0A6FF3B7D7A7D6D
:10403000B97DF87D04F074FC00BF1837BD4680BD23
:1040400080B586B000AFF860B9601346FB71FF23FE
:104050003B75BB681B78FB75084B1B68FA7D1146E6
:10406000184601F02DF907F1140201230921F8681F
:10407000FFF75AFF00BF1837BD4680BD2000002063
:104080002DE9F0439BB00CAFF861B9611346FB75A5
:104090004FF63F73BB840023FB86BB691B781BB2C2
:1040A0001B021AB2BB6901331B781BB21343BB86D8
:1040B000BB6902331B781BB21B021AB2BB69033304
:1040C0001B781BB213437B86BB6904331B781BB27E
:1040D0001B021AB2BB6905331B781BB213433B8624
:1040E000BB6906331B7887F82F30BB6907331B7811
:1040F00087F82E30BB6908331B7887F82D30BB69F1
:1041000009331B7887F82C30BB690A331B7887F892
:104110002B30BB690B331B781BB21B021AB2BB6975
:104120000C331B781BB213431BB23B85BB690D33A9
:104130001B7887F8273097F82F30072B02D9FB8E92
:104140000133FB8697F82E30072B02D9FB8E013303
:10415000FB8697F82C300F2B02D9FB8E0133FB86A0
:1041600097F82B300F2B02D9FB8E0133FB86FB8E89
:10417000002B57D1344B1868B98E7A8E3C8E97F845
:10418000273006933B8D059397F82B30049397F8CF
:104190002C30039397F82D30029397F82E3001932B
:1041A00097F82F300093234602F0A8F8B7F934C0EF
:1041B000B7F934304FEA132EB7F93280B7F93230FD
:1041C0001A0AB7F93010B7F93030180A97F82F40AB
:1041D00097F82E5097F82D6097F82C303B6197F8A0
:1041E0002B30FB60B7F828904B46BB603B8D1B0A19
:1041F0009BB27B6097F827300A937B680993BB6872
:104200000893FB6807933B6906930596049503940E
:10421000029001910092434672466146032007F0E6
:10422000ABFE05E03E2387F824303E2387F8253097
:1042300007F1240202230B21F869FFF775FE00BF86
:104240003C37BD46BDE8F0831800002080B586B03D
:1042500000AFF860B9601346FB71FF23FB750520C2
:1042600007F08AFE074B1B68184601F069FD07F14D
:10427000170201230D21F868FFF756FE00BF18371B
:10428000BD4680BD1800002080B586B000AFF86044
:10429000B9601346FB71FF23FB75042007F06CFE29
:1042A000074B1B68184601F027FD07F11702012391
:1042B0000F21F868FFF738FE00BF1837BD4680BDF4
:1042C0001800002090B58BB002AFF860B9601346BB
:1042D000FB714FF63F73BB820023FB77BB681B78F3
:1042E0001B02BA680132127813439BB21A4652017C
:1042F000D21A92001344DB00BB83BB6802331B78E5
:10430000FB76BB6803331B781BB21B021AB2BB6877
:1043100004331B781BB213431BB23B83BB8B4EF69B
:104320006022934202D9FB7F0133FB77FB7E042B93
:1043300003D9FB7F0133FB7722E0FB7E042B0DD1F9
:1043400007F1140202231121F868FFF7EDFD2D4B50
:104350001B680421184601F043FE4FE0294B1B68FF
:10436000184601F09CFD0346FB75FA7DFB7E42FA80
:1043700003F303F00103002B02D0FB7F0133FB7733
:104380003B8BB3F5FA7F04D33B8B40F6B8329342B4
:1043900002D9FB7F0133FB77FB7F002B23D1BB8B43
:1043A000184600F0E7FC174B1B68FA7E11461846CA
:1043B00001F016FE134B1B683A8B1146184601F0AC
:1043C00028FEB98BBB8B1B0A9BB21C46F87E3B8B2D
:1043D0003A8B120A92B201920093034622460920B8
:1043E00007F0CAFD03E03E233B753E237B7507F1D2
:1043F000140202231121F868FFF796FD2437BD4609
:1044000090BD00BF1800002080B586B000AFF860F6
:10441000B9601346FB71FF23FB7507F117020123F7
:104420001321F868FFF780FD0A2007F0A5FD00F0D2
:1044300065FC00BF1837BD4680BD80B586B000AFB3
:10444000F860B9601346FB71FF23FB7507F1170293
:1044500001231521F868FFF767FD0B2007F08CFD9D
:1044600000F070FC00BF1837BD4680BDF0B59BB0B2
:1044700008AF786139611346FB734FF63F733B8693
:104480000023A7F846303B691B781A063B690133C5
:104490001B781B041A433B6902331B781B0213432E
:1044A0003A690332127813433B643B6904331B7847
:1044B0001B029BB23A69053212781343FB873B69B2
:1044C00006331B781B029BB23A69073212781343FA
:1044D000BB873B6908331B781B029BB23A690932E0
:1044E000127813437B873B6CB3F57A7F03D33B6C25
:1044F000484A934204D9B7F846300133A7F846300A
:10450000FB8F002B04D1B7F846300133A7F84630B3
:10451000BB8F002B04D1B7F846300133A7F84630E3
:104520007B8F002B04D1B7F846300133A7F8463013
:10453000FA8FBB8F1A447B8F13441A463B6C02FBE5
:1045400003F3354AA2FB03231B0C7B637B6BB3F5A0
:10455000006F04D9B7F846300133A7F84630B7F8F2
:104560004630002B44D13B6CFB61FB8F7B84BB8FBF
:10457000BB847B8FFB847B6BBB62264A3B6CB2FBAC
:10458000F3F3FB62254B1B6807F11C02114618462A
:10459000FFF74AF80346002B23D13B6C1D0A3B6C06
:1045A0001E0C3B6C1B0EFA8FF98F090A89B2B96099
:1045B000B98FB88F000A80B27860788F7C8F240A18
:1045C000A4B206940590786804900391B9680291AA
:1045D0000192009333462A46396C1E2007F0CCFC2A
:1045E0000CE03E2387F830303E2387F8313005E079
:1045F0003E2387F830303E2387F8313007F1300210
:10460000022317217869FFF78FFC00BF4C37BD46A6
:10461000F0BD00BF40420F00D34D62101C000020CF
:1046200080B58AB000AFF860B9601346FB714FF6F1
:104630003F73BB84BB681B7887F8273097F8273017
:10464000642B06D93E2387F824303E2387F8253093
:1046500029E0164B1B6807F1100211461846FFF7B8
:104660004DF897F827307B75104B1B6807F1100247
:1046700011461846FFF710F80346002B06D197F8AD
:10468000273019461F2007F077FC05E03E2387F806
:1046900024303E2387F8253007F124020223192114
:1046A000F868FFF741FC2837BD4680BD1C0000209C
:1046B00080B58AB000AFF860B9601346FB714FF661
:1046C0003F73BB84BB681B7887F8273097F8273087
:1046D000242B03D897F82730002B06D13E2387F8E8
:1046E00024303E2387F8253022E0174B1B6807F162
:1046F000100211461846FFF701F897F827303B756E
:10470000114B1B6807F1100211461846FEF7DBFF3C
:104710000346002B06D197F827301946202007F0D2
:104720002BFC05E03E2387F824303E2387F8253014
:1047300007F1240202231B21F868FFF7F5FB00BFF5
:104740002837BD4680BD00BF1C00002080B586B064
:1047500000AFF860B9601346FB713F233B750D4B0A
:104760001B681846FEF7DEFF0346002B02D03E23EF
:104770003B7504E0084B1B681846FFF713FB07F175
:10478000140201231D21F868FFF7CEFB00BF183784
:10479000BD4680BD1C0000201400002080B58AB0FA
:1047A00000AFF860B9601346FB71194B1B6807F145
:1047B000100211461846FEF7A1FFFB69002B06D137
:1047C000002387F82430002387F8253014E0FB69A4
:1047D0001B09FB84FB6903F00F03002B02D0FB8C49
:1047E0000133FB84FB8C1B0A9BB2DBB287F82430BD
:1047F000FB8CDBB287F8253007F1240202231F214E
:10480000F868FFF791FB00BF2837BD4680BD00BFA9
:104810001C00002080B58CB000AFF860B960134672
:10482000FB714FF63F733B85BB681B7887F82D30D3
:10483000214B1B6807F1140211461846FEF75EFF74
:104840003B6A1B09FB853B6A03F00F03002B02D078
:10485000FB8D0133FB85FB8D002B06D13E2387F8B2
:1048600028303E2387F829301BE097F82D309BB283
:10487000FA8D9A4206D83E2387F828303E2387F8DF
:1048800029300EE097F82D301946252007F074FBEB
:10489000094B1B6897F82D2092B211461846FEF777
:1048A00079FF07F1280202232121F868FFF73CFB7A
:1048B00000BF3037BD4680BD1C00002080B586B0EB
:1048C00000AFF860B9601346FB7103F061FF7861D7
:1048D0007B691B0EDBB23B747B691B0CDBB27B7408
:1048E0007B691B0ADBB2BB747B69DBB2FB7407F12B
:1048F000100204232321F868FFF716FB00BF1837C6
:10490000BD4680BD80B586B000AFF860B960134683
:10491000FB714FF63F73BB8202F00CFD07F11402EE
:1049200002232521F868FFF7FFFA00BF1837BD46BC
:1049300080BD80B586B000AFF860B9601346FB71EA
:1049400003F026FF78617B691B0EDBB23B747B6949
:104950001B0CDBB27B747B691B0ADBB2BB747B690B
:10496000DBB2FB7407F1100204232721F868FFF77C
:10497000DBFA00BF1837BD4680BD000080B586B0A9
:1049800000AFF860B9601346FB714FF63F733B828E
:10499000BB681B78FB75BB6801331B78BB82B7F91A
:1049A0001430642B03DC97F91730012B04DD3E2310
:1049B0003B743E237B7408E0094B1B6897F9171082
:1049C000B7F914201846FEF787FD07F110020223FD
:1049D0002921F868FFF7A8FA00BF1837BD4680BD47
:1049E0001C00002080B586B000AFF860B9601346A7
:1049F000FB714FF63F73BB82BB681B78FB75BB68CE
:104A000001331B78BB75FB7D002B05D1BB7D242BAF
:104A100008D8BB7D002B05D0FB7D012B07D1BB7DCA
:104A2000002B04D13E233B753E237B7511E0FB7DBB
:104A3000002B07D10C4B1B68BA7D11461846FEF7B8
:104A400076FD06E0FB7D012B03D1BB7D184602F00D
:104A50001DFB07F1140202232B21F868FFF764FA0B
:104A600000BF1837BD4680BD1C00002080B586B051
:104A700000AFF860B9601346FB71FF233B75BB685C
:104A80001B78FB7507F1140201232D21F868FFF74D
:104A90004BFAFB7D002B05D1084B1B681846FEF72F
:104AA00069FD07E0FB7D012B04D1044B1B68184610
:104AB000FEF77BFD00BF1837BD4680BD1C000020FF
:104AC00080B588B000AFF860B9601346FB7102F0A2
:104AD00073FB0346FB8302F097FB0346BB833F2334
:104AE0003B75FB8B1B0A9BB2DBB27B75FB8BDBB28E
:104AF000BB75BB8B1B0A9BB2DBB2FB75BB8BDBB2FE
:104B00003B7607F1140205233321F868FFF70CFA0E
:104B100000BF2037BD4680BD80B586B000AFF860CD
:104B2000B9601346FB71FF233B7507F041FB07F1AA
:104B3000140201233521F868FFF7F6F900BF183792
:104B4000BD4680BD80B400AF024B1846BD465DF83F
:104B5000047B7047C028030880B400AF18231846B0
:104B6000BD465DF8047B704780B582B000AF7860C9
:104B700039607B681833184607F026FC00BF0837F9
:104B8000BD4680BD80B584B000AF786039607B6879
:104B90005B69FB607B685B693968786898470346A6
:104BA000FB72FB7A002B08D1FB68064978689847AE
:104BB0007B685B6904497868984700BF1037BD4639
:104BC00080BD00BFA42903089029030880B584B0E4
:104BD00002AF786039607B68002B03D10021134855
:104BE00001F09CFE78683B685A683B689B680093BC
:104BF00013460F4A0F4907F045FB7B6818337A6864
:104C00001721184607F09EFB3B681A687B685A61BB
:104C10007B68002283F828207B681833184607F049
:104C2000D3FB00BF0837BD4680BD00BF8029030805
:104C3000854B0208694B020880B586B002AF12238B
:104C40000093022324220949094806F001FF094A7A
:104C50003B1D07CA83E807003B1D19460648FFF7BE
:104C6000B5FF00BF1037BD4680BD00BF08CC002097
:104C70002CCC0020D41B0308C8CB002080B582B008
:104C800000AF0346FB71FB791946034807F014FB9C
:104C900000BF0837BD4680BDC8CB002080B582B0BC
:104CA00000AF786039603B681B88012B02D0172B5E
:104CB00002D01BE001231AE07B6893F82830002B18
:104CC00009D10D4B1B68184601F0BFF97B68012222
:104CD00083F8282008E0084B1B68184601F044FAC6
:104CE0007B68002283F82820012300E00223184675
:104CF0000837BD4680BD00BF2400002080B500AF4E
:104D00000C4B1B68184601F0A0F90346002B01D09C
:104D100001230CE0084B1B88074A128819460748F4
:104D200007F032FB064B012283F8282000231846A7
:104D300080BD00BF2400002028000020E0CB002020
:104D4000C8CB002080B500AF074807F03DFB074BFC
:104D50001B68184601F008FA054B002283F828204A
:104D60000023184680BD00BFE0CB002024000020B7
:104D7000C8CB002080B483B000AF0346FB80044A58
:104D8000FB88138000BF0C37BD465DF8047B70477D
:104D90002800002080B483B000AF78607B68DB69B6
:104DA00003F02003202B01D1012300E0002318464B
:104DB0000C37BD465DF8047B704780B483B000AF0C
:104DC00078607B685B6ADBB218460C37BD465DF8DD
:104DD000047B704780B582B000AF0B48FFF7DAFF65
:104DE0000346002B0BD00848FFF7E7FF0346FB7193
:104DF000064B1B68FA791146184605F0CDFD00BF39
:104E00000837BD4680BD00BF0014014090CC002093
:104E100080B584B000AF78607B689B69184606F067
:104E2000E4FDF860FB68002B08D0064B1B78002BD4
:104E300004D07B680449184607F068FA00BF1037B1
:104E4000BD4680BD8CCC0020B829030880B500AFDA
:104E5000FFF7C0FF0448FFF7DBFF044B4FF0FF32C2
:104E60001A6200BF80BD00BF48CC00200014014082
:104E700080B584B000AFF860B9607A60FB70FB6801
:104E8000BA681A63FB687A685A63FB78002B05D00E
:104E9000FB680749184607F039FA04E0FB68054942
:104EA000184607F033FA00BF1037BD4680BD00BF7B
:104EB000C0290308BC29030880B582B000AF786020
:104EC0007B680449184607F021FA00BF0837BD4641
:104ED00080BD00BFC429030880B582B000AF7860F0
:104EE0007B680449184607F011FA00BF0837BD4631
:104EF00080BD00BFC829030880B483B000AF7860CC
:104F000039607B681A693B6813403A689A420CBF63
:104F100001230023DBB218460C37BD465DF8047B45
:104F2000704780B483B000AF786039607B683A68BE
:104F30009A6100BF0C37BD465DF8047B704780B4B2
:104F400083B000AF786039603B681A047B689A616F
:104F500000BF0C37BD465DF8047B704780B584B058
:104F600002AF7860396078683B685A683B689B6834
:104F7000009313460D4A0E4907F084F97B681433F9
:104F80007A682921184607F0DDF93B681A687B68C2
:104F90005A627B6800229A627B681433184607F0D5
:104FA00013FA00BF0837BD4680BD00BF1950020884
:104FB000F94F020880B586B002AF0B4A3B1D07CA05
:104FC00083E807000223009305230A2207490848C3
:104FD00006F03EFD3B1D19460648FFF7BFFF00BF28
:104FE0001037BD4680BD00BFE01B0308E0CC0020A9
:104FF000C0CC002094CC002080B582B000AF786097
:1050000039604FF480710348FFF78BFF00BF08370A
:10501000BD4680BD0008024080B582B000AF786018
:1050200039607B685B6A39687868984700BF0837E1
:10503000BD4680BD80B582B000AF0346FB71FB79F1
:105040001946034807F038F900BF0837BD4680BD50
:1050500094CC002080B582B000AF786039603B68A6
:105060001B88292B38D1062001F0B8FA7B689B6A8F
:105070005A1C7B689A624FF400711A48FFF73CFF94
:105080000346002B10D07B6800229A624FF4807197
:105090001448FFF746FF062001F086FA7B681433B8
:1050A000184607F091F915E07B689B6A4EF660227E
:1050B00093420FD97B6800229A624FF480710948AD
:1050C000FFF72FFF062001F06FFA7B6814331846B4
:1050D00007F07AF9012300E0022318460837BD469D
:1050E00080BD00BF0008024080B582B000AF78608C
:1050F0004FF480710948FFF722FF7B6814330522C3
:105100000521184607F040F94FF49671062001F08A
:105110002DFA00BF0837BD4680BD00BF0008024021
:1051200080B584B002AF7860396078683B685A68AF
:105130003B689B68009313460F4A104907F0A2F89A
:105140007B6814337A682621184607F0FBF83B6821
:105150001A687B685A627B684FF47A729A627B683D
:10516000FF2283F82C207B681433184607F02CF9B3
:1051700000BF0837BD4680BD15520208C551020860
:1051800080B586B002AF02230093012302220949B1
:10519000094806F05DFC094A3B1D07CA83E8070081
:1051A0003B1D19460648FFF7BBFF00BF1037BD4641
:1051B00080BD00BF3CCD00201CCD0020EC1B0308AF
:1051C000ECCC002080B582B000AF7860396006F08A
:1051D000CDFE7B6803F114007B689B6A99B27B6803
:1051E0009B6A9BB21A4607F0CFF800BF0837BD464E
:1051F00080BD000080B582B000AF0346FB71FB7933
:105200001946034807F058F800BF0837BD4680BD6F
:10521000ECCC002080B582B000AF786039603B688C
:105220001B88262B05D1072001F0D8F9786800F0FB
:1052300005F8012318460837BD4680BD90B587B0F4
:1052400002AF786007F1080307F1090207F10A01CC
:1052500007F10B0003F0FAFBFB7A1946BB7A1A46FA
:105260007B7A18463B7A00930346012006F084FEC1
:105270000023FB601CE07B6893F82C301A46FB6827
:1052800042FA03F303F00103002B0ED0F86802F09A
:10529000E7F803461C46F86802F0E2F803461B0AEA
:1052A0002246F968022006F067FEFB680133FB60C6
:1052B000FB68072BDFD900BF00BF1437BD4690BD88
:1052C00080B483B000AF78600B46FB707B68FA78DF
:1052D00083F82C2000BF0C37BD465DF8047B704777
:1052E00080B582B000AF786039600121786800F045
:1052F0004BFD786800F061FD01F0A0F80346002B3B
:1053000046D001F017FB424BB3F91420414BA3F8F0
:1053100058203F4BB3F90E203E4BA3F852203C4B94
:10532000B3F90C203B4BA3F85020394B1A79394B79
:1053300083F84820364B5A79364B83F84920344B52
:105340009B68344AD364324B1A7C324B83F8542026
:105350002F4BDA8A2F4BA3F85A202D4B5A7C2D4B1A
:1053600083F855202A4B9A7C2A4B83F85620284BE9
:105370009B69284AD365264B1A7F264B83F8602009
:10538000234BDA8B234BA3F8622001F0F7FA34E0C9
:105390007B68FA22A3F858207B680022A3F85220E9
:1053A0007B684FF47A72A3F850207B68002283F860
:1053B00048207B68012283F849207B680122DA6457
:1053C0007B68012283F854207B68012283F85520F2
:1053D0007B684FF41672A3F85A207B68142283F876
:1053E00056207B680122DA657B68042283F86020FE
:1053F0007B684FF41672A3F862207B682033642226
:105400006421184606F0C0FF00BF0837BD4680BDC6
:105410001440024040CD002080B584B000AF7860D9
:1054200039607B685B69FB607B685B6939687868B9
:1054300098470346FB72FB7A002B08D1FB680649AC
:10544000786898477B685B6904497868984700BF2B
:105450001037BD4680BD00BFEC290308D8290308DA
:1054600080B586B002AF786039607B68002B03D1CD
:1054700000211D4801F052FA78683B685A683B6881
:105480009B6800931346194A194906F0FBFE7B6896
:1054900020337A681521184606F054FF3B681A68D5
:1054A0007B685A617B68002283F844200023FB60FC
:1054B0000EE03A68FB6802339B0013445A6879682F
:1054C000FB680C339B000B445A60FB680133FB60A4
:1054D000FB68032BEDD97B682033184606F074FF78
:1054E00000BF1037BD4680BDCC29030819540208FF
:1054F000E1520208B0B58AB002AF122300930A232A
:10550000B4220B490B4806F0A3FA0B4B3C1D1D4679
:105510000FCD0FC495E8070084E807003B1D19462E
:105520000648FFF79DFF00BF2037BD46B0BD00BF56
:10553000D8CD0020A8CD0020F81B030840CD0020C6
:1055400080B582B000AF0346FB71FB791946034872
:1055500006F0B2FE00BF0837BD4680BD40CD00203A
:1055600080B582B000AF786039607B68DB6D002B5E
:1055700006D07B68084A5A61084800F0E1FB05E064
:105580007B68074A5A61054800F0B6FB01231846BC
:105590000837BD4680BD00BF9956020840CD0020A7
:1055A000A555020880B584B000AF786039603B68CB
:1055B0001B88162B20D0162B63DC012B02D0032B6B
:1055C00013D05EE0082000F0EFFF7B682033184620
:1055D00006F0FAFE786800F093FC786800F0DDFCD5
:1055E0007B6801229A6101234CE04FF4FA71082094
:1055F00000F0BCFF012345E03B689B78042B3ED1C3
:105600007B6893F83030002B09D10121786800F0D5
:10561000BBFB786800F0D1FB786800F071FC7B6818
:1056200093F8483018467B6893F8493019467B68F0
:10563000B3F950207B68B3F9523001F041FF0346C3
:10564000002B04D07B68114A5A6100231AE07B6862
:1056500093F84830184601F003FF0346FB817B684E
:10566000B3F95830B7F90E209A4203DD7B68084A37
:105670005A6102E07B68074A5A61002302E0022374
:1056800000E0022318461037BD4680BDC55B020806
:1056900099560208D557020880B584B000AF7860EB
:1056A00039603B681B88013B152B00F2878001A203
:1056B00052F823F00D570208BD5702083757020869
:1056C000BD570208BD570208BD570208BD57020862
:1056D000BD570208BD570208BD570208BD57020852
:1056E000BD570208BD570208BD570208BD57020842
:1056F000BD570208BD570208BD570208BD57020832
:10570000BD57020845570208A7570208062006F0B1
:1057100033FC7B680022DA61786800F082FB7868ED
:1057200000F0CAFB7B68203364226421184606F02F
:105730002BFE012343E07B682033184606F044FE2D
:1057400001233CE0082000F049FF7B6893F84830D3
:1057500018467B6893F8493019467B68B3F95020A6
:105760007B68B3F9523001F0ABFE0346002B04D046
:105770007B68154A5A61002321E07B6893F8483022
:10578000184601F06DFE0346FB817B68B3F9583083
:10579000B7F90E209A4201DD012310E07B680B4A25
:1057A0005A6100230BE03B689B78052B04D17B6892
:1057B000074A5A61002302E0022300E00223184650
:1057C0001037BD4680BD00BFC55B0208D557020833
:1057D000A555020880B584B000AF786039603B6899
:1057E0001B88013B152B00F2998001A252F823F08F
:1057F000495802081D5902086D5802081D5902082F
:105800001D5902081D5902081D5902081D59020898
:105810001D5902081D5902081D5902081D59020888
:105820001D5902081D5902081D5902081D59020878
:105830001D5902081D5902081D5902081D59020868
:105840007B580208075902087B680022DA617868F1
:1058500000F056FB786800F0A0FB7B6820336422E0
:105860006421184606F090FD012358E07B68203340
:10587000184606F0A9FD012351E0082000F0AEFE15
:105880007B6893F8483018467B6893F8493019468E
:105890007B68B3F950207B68B3F9523001F010FEF9
:1058A0000346002B04D07B681F4A5A61002336E070
:1058B0007B6893F84830184601F0D2FD0346FB811F
:1058C0007B68B3F95830B7F90E209A4204DD7B6843
:1058D000164A5A61002322E07B68DB695A1C7B6808
:1058E000DA617B68DB691D2B08D87B68B3F9583017
:1058F0001A46B7F90E30D31A0A2B04DD7B680C4A1E
:105900005A6100230BE03B689B78052B04D17B6830
:10591000084A5A61002302E0022300E002231846ED
:105920001037BD4680BD00BFC55B0208995602080E
:1059300039590208A555020880B584B000AF7860D7
:1059400039603B681B88013B152B00F2878001A260
:1059500052F823F0AD5902085D5A0208D7590208DF
:105960005D5A02085D5A02085D5A02085D5A020833
:105970005D5A02085D5A02085D5A02085D5A020823
:105980005D5A02085D5A02085D5A02085D5A020813
:105990005D5A02085D5A02085D5A02085D5A020803
:1059A0005D5A0208E5590208475A0208072006F026
:1059B000E3FA7B680022DA61786800F0A1FA78687F
:1059C00000F0C2FA7B68203364226421184606F096
:1059D000DBFC012343E07B682033184606F0F4FC2F
:1059E00001233CE0082000F0F9FD7B6893F8483083
:1059F00018467B6893F8493019467B68B3F9502004
:105A00007B68B3F9523001F05BFD0346002B04D0F4
:105A10007B68154A5A61002321E07B6893F848307F
:105A2000184601F01DFD0346FB817B68B3F9583031
:105A3000B7F90E209A4201DA012310E07B680B4A85
:105A40005A6100230BE03B689B78052B04D17B68EF
:105A5000074A5A61002302E0022300E002231846AD
:105A60001037BD4680BD00BFC55B0208755A0208ED
:105A7000A555020880B584B000AF786039603B68F6
:105A80001B88013B152B00F28F8001A252F823F0F6
:105A9000E95A0208A95B0208075B0208A95B020831
:105AA000A95B0208A95B0208A95B0208A95B0208BE
:105AB000A95B0208A95B0208A95B0208A95B0208AE
:105AC000A95B0208A95B0208A95B0208A95B02089E
:105AD000A95B0208A95B0208A95B0208A95B02088E
